:020000040800F2
:1000000000200020C90E0008D10D0008D30D000803
:1000100000000000000000000000000000000000E0
:10002000000000000000000000000000D50D0008E6
:100030000000000000000000D70D0008D90D0008E6
:10004000190F0008190F0008190F0008190F0008F0
:10005000190F0008190F0008190F0008E10D00081A
:1000600000000000190F0008190F0008190F000800
:10007000190F0008190F0008190F0008ED0D0008EE
:10008000190F0008190F0008190F0008190F0008B0
:1000900000000000190F0008190F0008190F0008D0
:1000A000190F0008190F0008190F0008190F000890
:0C00B000190F0008FD0D00080000000002
:1000BC00002243088B4274D303098B425FD3030A9B
:1000CC008B4244D3030B8B4228D3030C8B420DD3AE
:1000DC00FF22090212BA030C8B4202D3121209023C
:1000EC0065D0030B8B4219D300E0090AC30B8B427A
:1000FC0001D3CB03C01A5241830B8B4201D38B0328
:10010C00C01A5241430B8B4201D34B03C01A5241CC
:10011C00030B8B4201D30B03C01A5241C30A8B420F
:10012C0001D3CB02C01A5241830A8B4201D38B02FA
:10013C00C01A5241430A8B4201D34B02C01A52419E
:10014C00030A8B4201D30B02C01A5241CDD2C30910
:10015C008B4201D3CB01C01A524183098B4201D38C
:10016C008B01C01A524143098B4201D34B01C01A77
:10017C00524103098B4201D30B01C01A5241C308EF
:10018C008B4201D3CB00C01A524183088B4201D35E
:10019C008B00C01A524143088B4201D34B00C01A4A
:1001AC005241411A00D20146524110467047FFE7B6
:1001BC0001B5002000F0F0F802BDC0460029F7D0D0
:1001CC0076E7704703460B437FD4002243088B42EB
:1001DC0074D303098B425FD3030A8B4244D3030BC2
:1001EC008B4228D3030C8B420DD3FF22090212BA87
:1001FC00030C8B4202D31212090265D0030B8B4203
:10020C0019D300E0090AC30B8B4201D3CB03C01AEC
:10021C005241830B8B4201D38B03C01A5241430BC7
:10022C008B4201D34B03C01A5241030B8B4201D3B7
:10023C000B03C01A5241C30A8B4201D3CB02C01A22
:10024C005241830A8B4201D38B02C01A5241430A9A
:10025C008B4201D34B02C01A5241030A8B4201D389
:10026C000B02C01A5241CDD2C3098B4201D3CB0130
:10027C00C01A524183098B4201D38B01C01A5241DF
:10028C0043098B4201D34B01C01A524103098B42E3
:10029C0001D30B01C01A5241C3088B4201D3CB00CE
:1002AC00C01A524183088B4201D38B00C01A5241B1
:1002BC0043088B4201D34B00C01A5241411A00D261
:1002CC0001465241104670475DE0CA0F00D04942CA
:1002DC00031000D34042534000229C4603098B423A
:1002EC002DD3030A8B4212D3FC22890112BA030AC2
:1002FC008B420CD3890192118B4208D38901921144
:10030C008B4204D389013AD0921100E08909C309C8
:10031C008B4201D3CB01C01A524183098B4201D3CA
:10032C008B01C01A524143098B4201D34B01C01AB5
:10033C00524103098B4201D30B01C01A5241C3082D
:10034C008B4201D3CB00C01A524183088B4201D39C
:10035C008B00C01A5241D9D243088B4201D34B00B7
:10036C00C01A5241411A00D20146634652415B10F9
:10037C00104601D34042002B00D5494270476346DA
:10038C005B1000D3404201B5002000F005F802BD1F
:10039C000029F8D016E770477047C046002B11D1E2
:1003AC00002A0FD1002900D1002802D00021C94316
:1003BC00080007B4024802A14018029003BDC046D1
:1003CC00D9FFFFFF03B4684601B5029803F002FCA5
:1003DC00019B9E4602B00CBC7047C0461C210123F9
:1003EC001B04984201D3000C10391B0A984201D30C
:1003FC00000A08391B09984201D30009043902A2EA
:10040C00105C40187047C046040302020101010150
:10041C00000000000000000010B5002903D1FFF718
:10042C00DDFF203002E00800FFF7D8FF10BDC0460A
:10043C008446100062468C461900634600E0C046B4
:10044C001FB50BF0A5FE002801D40021C8421FBD2A
:10045C0010B50BF0E9FD4042013010BD10B50BF0AA
:10046C0097FE002801DB002010BD012010BDC04606
:10047C0010B50BF08DFE002801DD002010BD012011
:10048C0010BDC04610B50BF013FE002801DC002097
:10049C0010BD012010BDC04610B50BF009FE0028A0
:1004AC0001DA002010BD012010BDC0460448054BE8
:1004BC0010B5834203D0044B002B00D0984710BDDD
:1004CC00C4060020C40600200000000006480749AE
:1004DC00091A8B10C90FC91810B5491003D0044B59
:1004EC00002B00D0984710BDC4060020C406002085
:1004FC000000000010B5074C2378002B09D1FFF742
:10050C00D5FF054B002B02D0044800E000BF0123AF
:10051C00237010BDC406002000000000E8CA0008CB
:10052C00054B10B5002B03D00449054800E000BF73
:10053C00FFF7CCFF10BDC04600000000C80600202D
:10054C00E8CA000810B586B0020005AB080A18709E
:10055C005970064C06490291022101910093012326
:10056C005231200001F008F906B010BD300800200F
:10057C00FFFF000010B586B002000C4C0C4B029330
:10058C000223019305AB009301235421200001F0B9
:10059C00C3F9002806D105AA137850781B0218431A
:1005AC0006B010BD00F0DEF9FAE7C04630080020B6
:1005BC00FFFF000010B52F4801F0C4FF00221021EE
:1005CC002D4800F0A3FE802109021C20FFF7BAFF82
:1005DC002A4C21001420FFF7B5FF21001520FFF74E
:1005EC00B1FF21001620FFF7ADFF21001720FFF708
:1005FC00A9FF14211020FFF7A5FF14211120FFF7EC
:10060C00A1FF14211220FFF79DFF14211320FFF7E7
:10061C0099FF1B4C21000820FFF794FF21000920B3
:10062C00FFF790FF21000A20FFF78CFF21000B2021
:10063C00FFF788FF00211920FFF784FFE92424022B
:10064C0021001E20FFF77EFF21001F20FFF77AFFFD
:10065C0021002020FFF776FF21002120FFF772FFF9
:10066C0008491B20FFF76EFF07491A20FFF76AFFA6
:10067C0010BDC046500700200004005002100000BE
:10068C00AD0900000DC200000116000010B50020DD
:10069C00FFF770FF0F4C20800120FFF76BFF60808D
:1006AC000220FFF767FFA0800320FFF763FFE080C5
:1006BC000420FFF75FFF20810520FFF75BFF6081BF
:1006CC000620FFF757FFA0810720FFF753FFE081BB
:1006DC0010BDC046E0060020F0B583B043001F49B2
:1006EC008000455A280A01AA1070EDB255700133EA
:1006FC005B005C5A270A9770E4B2D47003F016FEC4
:10070C009721C90503F0D2FC061C280003F00EFE4D
:10071C008F21C90503F0CAFC011C301C03F026FB19
:10072C00051C380003F002FE8721C90503F0BEFC4E
:10073C00011C281C03F01AFB051C200003F0F6FD1D
:10074C00011C281C03F012FB054903F0AFFCC62169
:10075C00890503F0ABFC03B0F0BDC046E0060020F9
:10076C000000204270B5FFF7B7FF04F0EDFB04006A
:10077C000D00094A094B04F01BF902000B00200084
:10078C00290004F015F902000B000020044903F0C5
:10079C000DFE04F021FC70BD10460F5CF071C940D9
:1007AC0080842E4110B5042814D880002E4B1B5881
:1007BC009F46A024E40501222021200000F0A6FD84
:1007CC0001224021200000F0A1FD01228021200007
:1007DC0000F09CFD10BDA024E40500222021200087
:1007EC0000F094FD01224021200000F08FFD012239
:1007FC008021200000F08AFDECE7A024E405012212
:10080C002021200000F082FD01224021200000F078
:10081C007DFD00228021200000F078FDDAE7A02485
:10082C00E40501222021200000F070FD002240216F
:10083C00200000F06BFD01228021200000F066FDFD
:10084C00C8E7A024E40500222021200000F05EFD72
:10085C0000224021200000F059FD002280212000C0
:10086C0000F054FDB6E7C04600CB0008F0B589B0E7
:10087C001422002103A804F0ADFD224B5A6B012574
:10088C002A435A635A6B2A400192019A596B0222ED
:10089C00114359635B6B1A400292029BA027FF0520
:1008AC000022E021380000F031FD174E002210210B
:1008BC00300000F02BFDE0230393049500240594F5
:1008CC00069403A9380000F067FC102303930495E9
:1008DC000594069403A9300000F05EFC20230393DA
:1008EC0088235B030493059403A9300000F054FCA7
:1008FC0000220021072000F0BBFB072000F0BCFB0E
:10090C0009B0F0BD0010024000040050034B8342BC
:10091C0000D07047024B01221A70FAE750070020F2
:10092C004C07002010B50C4B834200D010BD0B4B74
:10093C001B78732B03D1094B5B78302B05D00749FF
:10094C000548022203F076F8F0E70320FFF72AFFB0
:10095C00034B01221A70E9E79C070020F4060020E3
:10096C00F006002072B6FEE710B51248124B036079
:10097C00124B4360002383600122C2600361436118
:10098C008361C361036200F091FE00280CD1094819
:10099C00002101F095F8002808D10648002101F04B
:1009AC00BBF8002804D110BDFFF7DCFFFFF7DAFF1E
:1009BC00FFF7D8FF3008002000540040BC7D7010B9
:1009CC0010B51748174B0360E1235B02436000230B
:1009DC008360C36003610C224261836103624362E2
:1009EC008362436602F03CFF002811D10C480021C1
:1009FC0003F0A2F800280DD10948002103F0C2F839
:100A0C00002809D1064803F077F8002806D110BD5C
:100A1C00FFF7A8FFFFF7A6FFFFF7A4FFFFF7A2FF62
:100A2C009C0700200080004000B589B010220021F6
:100A3C0004A804F0CFFC0C22002101A804F0CAFC8D
:100A4C0014488023DB050360134B43600023836051
:100A5C006322C2600361836101F0D2FE002813D1CE
:100A6C0080235B0104930B4804A901F005FF0028C7
:100A7C000CD1002301930393064801A901F080FFD8
:100A8C00002805D109B000BDFFF76CFFFFF76AFF26
:100A9C00FFF768FF50070020FF18000000B593B067
:100AAC003822002104A804F095FC1022002168468D
:100ABC0004F090FC8020800001F058F8022304938D
:100ACC0080225200079200220892402109910B9338
:100ADC000C930D9206330E9380239B020F9380236D
:100AEC009B04109380239B05119304A801F068F8D4
:100AFC0000280ED107230093053B0193002302939A
:100B0C0003930221684601F013FB002803D113B0B4
:100B1C0000BDFFF727FFFFF725FF0000F0B5D64615
:100B2C004F464646C0B586B000F01EFAFFF7B6FF3A
:100B3C00FFF79CFEFFF718FFFFF742FFFFF774FF6C
:100B4C000220FFF72FFE314801F0FCFCFFF732FDCD
:100B5C002F493048022202F06DFF52E02B4D280045
:100B6C0001F028FD2C4B00221A70FFF78FFD00209E
:100B7C00FFF7F8FD294C20600120FFF7F3FD284B0F
:100B8C00984618600220FFF7EDFD264B9946186039
:100B9C000320FFF7E7FD244B9A461860280001F06C
:100BAC00D1FC206804F0D0F906000F001F4D204C3A
:100BBC005346186804F0C8F9049005914B46186820
:100BCC0004F0C2F9029003914346186804F0BCF992
:100BDC000090019132003B002900200004F088FBBA
:100BEC00144B1860FA2382B20A489B00210002F0D1
:100BFC0085FDA0202021C00500F08EFB052000F013
:100C0C00D9F9054B1B78012BA8D0F2E7500700202F
:100C1C00F40600209C0700204C0700204807002009
:100C2C0044070020400700203C07002014CB00089C
:100C3C00FC060020F806002082B00A4B196C012239
:100C4C0011431964196C0A400092009ADA6B8021E6
:100C5C0049050A43DA63DB6B0B400193019B02B03D
:100C6C007047C0460010024010B592B00400142228
:100C7C0000210DA804F0AEFB2822002103A804F0EB
:100C8C00A9FB2268184B9A4201D012B010BD202348
:100C9C00039303A801F02CFB002821D1134C626BA9
:100CAC0002231A436263626B13400193019BC023BE
:100CBC005B000D936F3BFF3B0E9300230F93109340
:100CCC00063311930DA90A4800F066FAE36B8022F3
:100CDC0092031343E363E36B13400293029BD4E749
:100CEC00FFF740FEDAE7C046005400400010024017
:100CFC000004005010B592B00400142200210DA87D
:100D0C0004F068FB2822002103A804F063FB22688E
:100D1C001B4B9A4201D012B010BD1023039303A8B1
:100D2C0001F0E6FA002828D1164BDA6B8021490332
:100D3C000A43DA63DA6B0A400192019A596B012279
:100D4C00114359635B6B1A400292029B0C230D9367
:100D5C000A3B0E9300230F93109306331193A0209C
:100D6C000DA9C00500F018FA002200211D2000F08A
:100D7C007FF91D2000F080F9CDE7FFF7F3FDD3E7F5
:100D8C00008000400010024000B583B00268802350
:100D9C00DB059A4201D003B000BD094AD16B012397
:100DAC001943D163D26B13400193019B00220021A4
:100DBC000F2000F05DF90F2000F05EF9EBE7C04664
:100DCC0000100240FEE7FEE77047704710B500F0D8
:100DDC00DFF810BD10B5202000F0A8FA10BD0000FF
:100DEC0010B5024801F006FC10BDC04650070020AB
:100DFC0010B5024801F058FE10BDC0469C070020FB
:100E0C000120704710B504F087FB16230360012006
:100E1C00404210BD10B501214942FFF7F3FFFEE738
:100E2C0070B50C001600002504E000E000BF207037
:100E3C0001350134B542F8DB300070BD70B51600D9
:100E4C00002405E04D1C087800E000BF01342900A7
:100E5C00B442F7DB300070BD012040427047802364
:100E6C009B014B60002070470120704700207047A9
:100E7C0010B503000C4A0D49521A0D490968002996
:100E8C0007D00B490868C318934206D8084A136068
:100E9C0010BD074907480860F3E704F03DFB0C233D
:100EAC00036001204042F3E7002000200004000012
:100EBC0084080020A00B0020704700000D488546D8
:100ECC00FFF7FAFF0C480D490D4A002302E0D458F5
:100EDC00C4500433C4188C42F9D30A4A0A4C002378
:100EEC0001E013600432A242FBD304F01BFBFFF7BA
:100EFC0015FEFEE70020002000000020C4060020A4
:100F0C006CD30008C4060020A00B0020FEE70000F4
:100F1C0010B50400114B1978002901D1012010BD26
:100F2C00FA208000FFF7C4F801000D4B1868FFF79A
:100F3C00BFF800F0ADF800280DD1032C01D9012029
:100F4C00EDE7013000222100404200F091F8054B02
:100F5C001C600020E3E70120E1E7C046040000200C
:100F6C00000000200800002010B5084A11688023FA
:100F7C005B000B4313600320FFF7CAFF041E02D073
:100F8C000124200010BDFFF757FEFAE700200240B5
:100F9C00034B1B78034A11685B1813607047C046FB
:100FAC000400002088080020014B18687047C046D8
:100FBC008808002070B50400FFF7F6FF0500631CDD
:100FCC0002D0044B1B78E418FFF7EEFF401BA04245
:100FDC00FAD370BD0400002070B5002811DB830823
:100FEC00134DC0339B005C5903221040C000FC32EF
:100FFC0016008640B44389010A40824022435A516C
:10100C0070BD0F230340083B9B0806339B00094A25
:10101C00944663445C6803221040C000FC32150007
:10102C008540AC4389010A40824022435A60E7E77D
:10103C0000E100E000ED00E0013880235B04984201
:10104C000FD2094A50600948036A1B021B0AC021CF
:10105C0009060B43036200239360073313600020DF
:10106C0070470120FCE7C04610E000E000ED00E016
:10107C0010B5FFF7B1FF10BD002805DB1F220240A1
:10108C0001239340014A13607047C04600E100E021
:10109C0010B5FFF7D1FF10BD30B5002836D0252391
:1010AC00C35C022B06D00423C36320330022C2543A
:1010BC00012030BD026813680E218B431360426C13
:1010CC00136813490B40136001680A6801239A43A3
:1010DC000A60104C6268056C1C2129408B4013433C
:1010EC006360836CC26C5A60036D002B06D01A6867
:1010FC0007490A401A60436D826D5A60252301220C
:10110C00C254013B0022C2540020D2E70120D0E798
:10111C00FFFEFFFF0000024070B52523C35C022BCD
:10112C0003D00423C363012070BD026813680E2131
:10113C008B43136001680A6801239A430A60416C6F
:10114C000A68134C22400A60124C6268056C1C2120
:10115C0029408B4013436360836CC26C5A60036DEF
:10116C00002B06D01A680A490A401A60436D826D3A
:10117C005A6025230122C254013B0022C254836BC6
:10118C00002B02D098470020CEE70020CCE7C046C9
:10119C00FFFEFFFF00000240F0B5002359E0866817
:1011AC005F000324BC40A643CC68BC40344384603D
:1011BC00446894434E683609012232409A402243D7
:1011CC00426056E0DE080836B600375805321A4041
:1011DC0092000F249440A7430C69944022003A4398
:1011EC00325059E0032600E00026A64034003C4370
:1011FC00424E1832920094513768EA433E00AE4397
:10120C004C68E40201D53E002E433C4C26606768D6
:10121C003E0016404C68A40201D53E002E43374CCC
:10122C0066608426A7593E0016404C68A40301D57D
:10123C003E002E43314C8427E6518026A65932407D
:10124C004C68E40301D52A0032432C4D80242A51EA
:10125C0001330C682200DA404ED001229A4025005E
:10126C0015401442F4D04E6803243440013C012C48
:10127C0095D94C6803222240032A08D0C4685E002A
:10128C000322B24094438A68B2402243C2604C6845
:10129C0003222240022A95D004685E000322170024
:1012AC00B740BC434F683A40B240224302604C689E
:1012BC00C02292021442CBD09A0814001834A40015
:1012CC000E4EA75903241C40E4000F26A640B7433A
:1012DC00A026F605B04287D0094EB04208D0094E80
:1012EC00B04207D0084EB04200D17BE705267CE720
:1012FC0001267AE7022678E7F0BDC04600180240C6
:10130C000004005000080050000C0050002A01D0CE
:10131C00816170478162FCE7426913000B401B043A
:10132C0091430B43836170477047704710B50400BD
:10133C00094BDB68184204D1074B1B69234205D1CA
:10134C0010BD054BD860FFF7EFFFF5E7024B1C61B2
:10135C002000FFF7EAFFF3E70018024002689369E8
:10136C009B0701D50023936203689A69D20703D4C3
:10137C009A6901210A439A617047000010B58905EA
:10138C00890D120411431943029B19434900490862
:10139C00046862685B0D8020C0000340034803436F
:1013AC009A4313000B43636010BDC046FF63FF03F9
:1013BC00F0B5C64600B504000D00170001688B6936
:1013CC00102216001E401A4200D175E01023CB618A
:1013DC00002398460026206883699B0631D4002E92
:1013EC002FD16B1CF7D0FFF7DFFDC01BA84201D833
:1013FC00002DF0D121684B688022D201134042228B
:10140C00A25CD2B28869000403D5002B01D1202A3A
:10141C000ED123689B699B06DDD4FFF7C5FDC01B6D
:10142C001928F6D9202342461A4390460126D2E7C2
:10143C004A688023DB0113434B60FFF7B5FD0700BF
:10144C00E7E7002E01D12023C36104264346334332
:10145C001E00012522689369D90504D501210E438C
:10146C00FF31D16101255A0506D5082216432268A1
:10147C008021C900D16101259B051FD502231E4384
:10148C00236880229200DA6101252000FFF766FFB5
:10149C00226853680B490B405360636C334363649D
:1014AC0041232022E25400232232A354023AA354B3
:1014BC00280080BCB846F0BD0025CBE7002DF7D046
:1014CC00E3E7C04600E800FE70B504000D0016000E
:1014DC0023689B699B071CD4320029002000FFF76E
:1014EC0067FF002817D16B1CF2D0FFF75DFD801B46
:1014FC00A84201D8002DEBD1636C20221343636406
:10150C004123E25400232232A354023AA354012073
:10151C0000E0002070BD0120FCE7F0B5C64600B528
:10152C0007000D0090461E003B689C692C40641B14
:10153C0063425C41444516D1731CF5D0FFF734FD72
:10154C00069BC01AB04201D8002EEDD17B6C202234
:10155C0013437B644123FA5400232232BB54023AD6
:10156C00BB54012000E0002080BCB846F0BD000058
:10157C0070B582B0040015001E008023F2B2194829
:10158C0000905B042000FFF7F9FE079A06992000F3
:10159C00FFF79AFF00281ED1012E0ED12368EDB261
:1015AC009D62079B0093069B002280212000FFF781
:1015BC00B4FF002813D102B070BD23682A0A9A62C6
:1015CC00079A06992000FFF77FFF002805D12368B2
:1015DC00EDB29D62E5E70120EDE70120EBE701208C
:1015EC00E9E7C0460020008070B582B00400150009
:1015FC001E00DAB2184B00930023FFF7BFFE079AC8
:10160C0006992000FFF760FF00281ED1012E0ED195
:10161C002368EDB29D62079B0093069B002240213C
:10162C002000FFF77AFF002813D102B070BD2368A9
:10163C002A0A9A62079A06992000FFF745FF0028AC
:10164C0005D12368EDB29D62E5E70120EDE70120AD
:10165C00EBE70120E9E7C0460020008070B50500EB
:10166C000C0016002B689B699B061AD432002100D3
:10167C002800FFF79DFE002815D1FFF795FC801B75
:10168C00A04201D8002CEDD16B6C202213436B646B
:10169C004123EA5400232232AB54023AAB540120CA
:1016AC0070BD0020FCE70120FAE7000010B5041E15
:1016BC0059D04123C35C002B43D041232422E25454
:1016CC002268136801218B431360636822682749E1
:1016DC000B4013612268936825490B409360E368C3
:1016EC00012B34D0A168226884231B020B43936026
:1016FC00E368022B32D0226851681E4B0B435360B7
:10170C002268D3681A490B40D3602369626913437A
:10171C00A269120221681343CB60E369216A226833
:10172C000B4313602268136801210B4313600023E1
:10173C00636441221F31A15423630132A35400205E
:10174C0010BD40330022C254FFF78EFAB5E7A168F2
:10175C00226880231B020B439360C9E72368802215
:10176C0012015A60C7E70120EAE7C046FFFFFFF00D
:10177C00FF7FFFFF00800002F0B587B004000391EB
:10178C00049205930CAB20CB1F884123C35C202B08
:10179C0000D0B3E0002D18D0002F16D04023C35C2E
:1017AC00012B00D1ADE040230122C254FFF7FCFB1A
:1017BC000600802100901923012209022000FFF766
:1017CC00ACFE002806D0012099E080239B006364C6
:1017DC00012094E041232122E25401331F32E254D0
:1017EC000023636465626785636301960E9B0093B7
:1017FC00059B049A03992000FFF7BAFE00280FD12D
:10180C00638D9BB2FF2B10D9FF2323857F3B0022D6
:10181C0000925B04FF3203992000FFF7AFFD21E03B
:10182C0040230022E254012069E0628D92B22285AD
:10183C008023D2B2002100919B0403992000FFF772
:10184C009DFD0FE0628D92B222858023D2B20021E1
:10185C0000919B0403992000FFF790FD638D9BB2D0
:10186C00002B34D032000E992000FFF72DFE0028FB
:10187C0049D1626A236812789A62636A013363629F
:10188C00638D013B9BB26385238D013B9BB223850A
:10189C00628D92B2002AE1D0002BDFD100960E9B14
:1018AC00002280212000FFF738FE00282DD1638D07
:1018BC009BB2FF2BC6D9FF2323857F3B00220092CE
:1018CC005B04FF3203992000FFF758FDC6E7320096
:1018DC000E992000FFF7C2FE002818D123682022A1
:1018EC00DA6121684B680B4D2B404B604123E2546D
:1018FC0000232232A354023AA35400E0022007B082
:10190C00F0BD0220FBE70120F9E70120F7E70120F9
:10191C00F5E7C04600E800FEF0B587B0040003917F
:10192C00049205930CAB20CB1F884123C35C202B66
:10193C0000D0B5E0002D18D0002F16D04023C35C8A
:10194C00012B00D1AFE040230122C254FFF72CFB46
:10195C000600802100901923012209022000FFF7C4
:10196C00DCFD002806D001209BE080239B006364F3
:10197C00012096E041232222E25401331E32E2542C
:10198C000023636465626785636301960E9B009315
:10199C00059B049A03992000FFF726FE00280FD11F
:1019AC00638D9BB2FF2B10D9FF2323857F3B424ACB
:1019BC0000925B04FF2203992000FFF7DFFC21E07B
:1019CC0040230022E25401206BE0628D92B222850A
:1019DC008023D2B2384900919B0403992000FFF771
:1019EC00CDFC0FE0628D92B222858023D2B2002111
:1019FC0000919B0403992000FFF7C0FC638D9BB200
:101A0C00002B36D000960E9B002204212000FFF7FD
:101A1C0084FD002849D123685A6A636A1A70636A84
:101A2C0001336362238D013B9BB22385628D013AA6
:101A3C0092B26285628D92B2002ADFD0002BDDD18A
:101A4C0000960E9B002280212000FFF766FD0028E7
:101A5C002DD1638D9BB2FF2BC4D9FF2323857F3BF4
:101A6C00002200925B04FF3203992000FFF786FCF2
:101A7C00C4E732000E992000FFF7F0FD002818D1C2
:101A8C0023682022DA6121684B680C4D2B404B6097
:101A9C004123E25400232232A354023AA35400E01F
:101AAC00022007B0F0BD0220FBE70120F9E701207E
:101ABC00F7E70120F5E7C0460024008000E800FEAF
:101ACC00F0B54123C35C202B20D12033C35C012B08
:101ADC001ED040240122025541252423435506687B
:101AEC00336893433360066833680A4F3B40336076
:101AFC00066833680B43336001680B6813430B6053
:101B0C0020234355002303550020F0BD0220FCE7A1
:101B1C000220FAE7FFEFFFFFF0B54123C35C202B57
:101B2C001ED12033C35C012B1CD040240122025552
:101B3C004125242343550668336893433360066874
:101B4C003368094F3B4009021943316001680B6847
:101B5C0013430B6020234355002303550020F0BD95
:101B6C000220FCE70220FAE7FFF0FFFF10B5104A55
:101B7C00136810490B400343136080239B00984269
:101B8C0001D0002010BD0C4B1B685800C018400041
:101B9C000A49FEF78DFA0130054B5B695B0503D5ED
:101BAC00002803D00138F7E70020EBE70320E9E732
:101BBC0000700040FFF9FFFF0000002040420F00C2
:101BCC0070B582B0041E00D131E20368DB0739D551
:101BDC00C14A916838230B40D16803220A40102B6C
:101BEC0026D0082B26D063688022520293427FD0E5
:101BFC00A022D202934200D181E0B74B1A68B749B8
:101C0C000A401A601A68B6490A401A606368002BC9
:101C1C0000D180E0FFF7C8F90500AF4B1B689B03B0
:101C2C0010D4FFF7C1F9401B6428F6D90320FFE15B
:101C3C00032AD6D1A84B1B689B0303D56368002BE2
:101C4C0000D1F7E123689B0731D5A34A916838236B
:101C5C000B40D16803220A40102B6AD0002B6BD1A9
:101C6C009D4A1268520503D5E268002A00D1E3E1CF
:101C7C00994842689B490A40616909020A434260DB
:101C8C00002B0DD1036898490B4021690B4303606D
:101C9C000368DB0A07221A40944BD340944A136022
:101CAC00944B1868FFF734F9002800D0C6E123687C
:101CBC001B0700D481E0884B9A6838231340182BFB
:101CCC0073D0A369002B00D1B4E0834A136E0121B9
:101CDC000B431366FFF768F905007F4B1B6E9B07E0
:101CEC006BD4FFF761F9401B0228F6D903209FE162
:101CFC00794A116880235B020B43136086E7764BAD
:101D0C0019688022D2020A431A6019688022520292
:101D1C000A431A607AE7FFF747F905006E4B1B6818
:101D2C009B038FD5FFF740F9401B6428F6D903209D
:101D3C007EE1022A92D193E7E368002B22D0664A17
:101D4C00136869490B4021690B43136011688023A8
:101D5C005B000B431360FFF727F905005E4B1B6814
:101D6C005B0506D4FFF720F9401B0228F6D90320A7
:101D7C005EE159494B685B4A134062691202134396
:101D8C004B6094E7544A13685B490B401360FFF7B0
:101D9C000BF90500504B1B685B0588D5FFF704F960
:101DAC00401B0228F6D9032042E14B4B1B6E9B07CC
:101DBC0003D5A369002B00D142E123685B0700D453
:101DCC00A2E0454B9A6838231340202B45D0424B58
:101DDC00DB6BDB004AD4404BDA6B802149050A43AC
:101DEC00DA63DB6B0B400193019B0125434B1B68B2
:101DFC00DB053DD5A368012B4ED0052B52D0364BBD
:101E0C00DA6D01218A43DA65DA6D03318A43DA65CA
:101E1C00A368002B50D0FFF7C7F806002E4BDB6DE4
:101E2C009B076FD4FFF7C0F8801B354B9842F5D950
:101E3C000320FDE0284A136E01218B431366FFF744
:101E4C00B3F80500244B1B6E9B07B6D5FFF7ACF817
:101E5C00401B0228F6D90320EAE01F4BDB6D9B07E1
:101E6C0052D5A368002B4FD10120E1E00025BDE73E
:101E7C00224A116880235B000B431360FFF794F830
:101E8C0006001E4B1B68DB05B4D4FFF78DF8801BD6
:101E9C000228F6D90320CBE00F4AD36D01210B4366
:101EAC00D365B5E70C4BDA6D04210A43DA65DA6DBC
:101EBC0003390A43DA65ABE7FFF776F80600064B01
:101ECC00DB6D9B071ED5FFF76FF8801B0C4B984200
:101EDC00F5D90320ACE0C04600100240FFFFFEFF26
:101EEC00FFFFFBFFFF80FFFFFFC7FFFF0024F40095
:101EFC000000002008000020FFFEFFFF00700040E3
:101F0C0088130000012D1ED0E369002B00D199E04D
:101F1C00544A916838220A40102A60D0022B18D0FB
:101F2C00504A136850490B401360FFF73DF804000A
:101F3C004C4B1B689B014BD5FFF736F8001B022856
:101F4C00F6D9032074E0474AD36B48490B40D3635E
:101F5C00DAE7444A136844490B401360FFF724F84E
:101F6C000500404B1B689B0106D5FFF71DF8401B75
:101F7C000228F6D903205BE03A4AD3683C49194061
:101F8C00236A606A0343A06A00020343E06A0343C6
:101F9C00206B0343606B03430B43D36011688023B6
:101FAC005B040B431360D16880235B050B43D36048
:101FBC00FEF7FAFF04002B4B1B689B0106D4FEF7BF
:101FCC00F3FF001B0228F6D9032031E000202FE09C
:101FDC00244AD36827490B40D360002028E0012B0A
:101FEC0032D0204BDA6803231340216A8B422DD167
:101FFC0070231340616A8B422AD1FE21C901114022
:10200C00A36A1B02994225D1F8239B031340E16A72
:10201C008B4221D1E0231B051340216B8B421DD138
:10202C00520F5207636B9A421AD1002000E0012034
:10203C0002B070BD0120FBE70120F9E70120F7E7B2
:10204C000120F5E70020F3E70120F1E70120EFE79D
:10205C000120EDE70120EBE70120E9E70120E7E7AC
:10206C000120E5E700100240FFFFFFFEFFFFFFEF3E
:10207C008C80C111FCFFFEEE10B52A4B9B683822F8
:10208C001A4207D1274B1A68D20A07231340264855
:10209C00D84010BD234B9A6838231340082B3BD0F3
:1020AC00204B9A6838231340102B0DD01D4B9A6887
:1020BC0038231340202B31D01A4B9A683823134005
:1020CC00182B26D00020E4E7164AD1680D3B0B40B4
:1020DC00D2681209072111400131032B0FD012488D
:1020EC00FDF7E6FF0F4BDA68120A7F2313405843C3
:1020FC000C4BD968490F0131FDF7DAFFC9E70B48E2
:10210C00FDF7D6FF074BDA68120A7F2313405843BA
:10211C00EEE7FA20C001BCE70448BAE780200002D1
:10212C00B7E7C046001002400024F40000127A0009
:10213C0070B504000D00002800D1AAE0574B1A68B6
:10214C00072313408B4221D323689A070ED55B07D4
:10215C0005D5534A9168E023DB010B439360504A49
:10216C00936850490B40A1680B4393602368DB07CD
:10217C0054D56368012B20D0022B3BD0002B3FD1D0
:10218C00474A126852051CD401206AE0434A13687E
:10219C0007218B432B431360FEF706FF06003F4BD2
:1021AC001A6807231340AB42CED0FEF7FDFE801B0E
:1021BC003D4A9042F3D9032053E0394A1268920306
:1021CC0069D537498A680720824313438B60FEF731
:1021DC00EBFE0600324B9B6838221A406368DB002A
:1021EC009A421BD0FEF7E0FE801B2F4B9842F1D990
:1021FC00032036E02A4A12689201E2D4012030E032
:10220C00032B05D0264AD26D9207DAD4012028E0A0
:10221C00234A126E9207D4D4012022E01F4B1A6875
:10222C0007231340AB421DD823685B0706D51C4A15
:10223C0093681E490B40E1680B439360FFF71CFF4A
:10224C00174B9A68120A0F231340194A9B009A588D
:10225C001F231340D840174B1860174B1868FEF714
:10226C0057FE70BD0D4A136807218B432B43136037
:10227C00FEF79AFE0600094B1A6807231340AB427F
:10228C00D2D0FEF791FE801B074B9842F3D9032066
:10229C00E7E70120E5E70120E3E7C0460020024024
:1022AC0000100240FFF0FFFF88130000FF8FFFFFBC
:1022BC00FCCC00080000002008000020014B18682E
:1022CC007047C0460000002010B5FFF7F7FF064B23
:1022DC009A68120B07231340044A9B009A581F2339
:1022EC001340D84010BDC04600100240DCCC0008A2
:1022FC00F0B583B0040003689B0362D56D4BDB6BB8
:10230C00DB001ED46B4BDA6B802149050A43DA6380
:10231C00DB6B0B400193019B0126674A11688023FC
:10232C005B000B431360FEF73FFE0500624B1B681E
:10233C00DB0508D4FEF738FE401B0228F6D903252E
:10234C0002E00026E9E70025002D23D1594BD96D79
:10235C00C02292000B001340114210D0626A9A42C4
:10236C000DD0544AD36D55490B40D06D8021490294
:10237C000143D165D16D52480140D165D365DB076E
:10238C0010D4002D06D14B4AD36D4C490B40616AD9
:10239C000B43D365012E15D1464AD36B49490B40EB
:1023AC00D3630FE0FEF700FE0700424BDB6D9B078B
:1023BC00E7D4FEF7F9FDC01B434B9842F5D9032532
:1023CC00DFE700252368DB0706D53A4A536D032166
:1023DC008B4361680B4353652368DB0606D5354A8E
:1023EC00536D3A490B40A1680B43536523689B0519
:1023FC0006D5304A536D36490B4061690B43536522
:10240C0023685B0506D52B4A536D32490B40A169F5
:10241C000B43536523689B0606D5264A536D2E49FC
:10242C000B40E1680B43536523685B040BD5214AD1
:10243C00536D9B009B08E1690B435365E269802354
:10244C00DB059A4220D023689B020BD5194A536DA9
:10245C0022490B40216A0B435365226A8023DB031C
:10246C009A4218D023681B050BD5124A536D1C4990
:10247C000B4021690B43536522698023DB019A428F
:10248C0010D0280003B0F0BD0A4AD16880235B024B
:10249C000B43D360D7E7074AD16880235B040B4317
:1024AC00D360DFE7034AD16880235B020B43D36020
:1024BC00E7E7C0460010024000700040FFFCFFFF41
:1024CC00FFFFFEFFFFFFFFEF88130000FFF3FFFF8E
:1024DC00FFFFF3FFFFFFCFFFFFCFFFFFFFFFBFFFAC
:1024EC00FF3FFFFF30B5036A046A0125AC43046269
:1024FC008469EF35AC43120122430A24A3430B43F6
:10250C008261036230BD000030B5036A1024A3431E
:10251C0003628469036A054D2C4012032243A024F4
:10252C00A343090119438261016230BDFF0FFFFF14
:10253C008368034A13400B4307221343836070479D
:10254C008FFFCFFF3D23C35C012B26D13C330222EE
:10255C00C2540268D36801210B43D3600368124A4A
:10256C0093420CD08022D205934208D00F4A93425A
:10257C0005D01A6801210A431A6000200EE09A68FF
:10258C000B490A40062A0AD007398A4209D01A6830
:10259C0001210A431A60002000E00120704700204E
:1025AC00FCE70020FAE7C046002C01400004004084
:1025BC00070001000268D36801218B43D3600368D4
:1025CC00196A084A114207D1196A074A114203D104
:1025DC001A6801218A431A603D230122C25400204B
:1025EC007047C0461111000044040000704770474A
:1025FC007047704710B50400026813699B070FD52C
:10260C00D3689B070CD503235B4213610433037718
:10261C0003689B699B076AD0FFF7E9FF00232377C8
:10262C00226813695B0712D5D3685B070FD50523A6
:10263C005B4213610733237723689A69C0239B009D
:10264C001A425AD02000FFF7D2FF002323772268CA
:10265C0013691B0710D5D3681B070DD509235B42E3
:10266C0013610D3323772368DB699B074CD0200063
:10267C00FFF7BDFF0023237722681369DB0612D511
:10268C00D368DB060FD511235B4213611933237713
:10269C002368DA69C0239B001A423CD02000FFF764
:1026AC00A6FF0023237722681369DB0702D5D368C2
:1026BC00DB0737D4226813691B0602D5D3681B06C7
:1026CC0037D422681369DB0502D5D3681B0637D4CF
:1026DC00226813695B0602D5D3685B0636D4226880
:1026EC0013699B0602D5D3689B0636D410BDFFF741
:1026FC007DFF2000FFF77CFF90E72000FFF776FFBF
:10270C002000FFF775FFA0E72000FFF76FFF200008
:10271C00FFF76EFFAEE72000FFF768FF2000FFF722
:10272C0067FFBEE702235B4213612000FEF7EEF861
:10273C00C0E781235B421361200000F05EF9C0E723
:10274C00094B1361200000F059F9C1E741235B42AA
:10275C0013612000FFF74DFFC1E721235B4213619A
:10276C00200000F049F9C1E7FFFEFFFF03681E4A95
:10277C00904206D08022D205904202D01B4A904251
:10278C0003D1702293434A681343174A90420FD0E7
:10279C008022D20590420BD0144A904208D0144AA1
:1027AC00904205D0134A904202D0134A904203D172
:1027BC00124A1A40CB681343802293434A6913434D
:1027CC0003608B68C3620B688362074B984205D029
:1027DC00084B984202D0084B984201D10B69036315
:1027EC00012343617047C046002C014000040040A7
:1027FC00002000400044014000480140FFFCFFFF66
:10280C0070B5041E2AD03D23C35C002B20D03D257F
:10281C0002236355210001C9FFF7A8FF01234822B9
:10282C00A3540A3AA3540132A3540132A3540132E3
:10283C00A3540132A3540132A3540132A3540132E4
:10284C00A3540132A3540132A3546355002070BD2C
:10285C003C330022C254FEF797FAD8E70120F6E782
:10286C0030B58468034D2C401B0213430B432343A8
:10287C00836030BDFF00FFFF10B504000B003C224D
:10288C00825C012A00D177E03C2201218154013283
:10289C000131815401688A68384802408A6019689D
:1028AC0060294FD023D8402957D011D8202904D0E3
:1028BC000AD8002901D0102904D12068FFF738FE6E
:1028CC0000202AE0012028E03029F6D0012024E065
:1028DC0050290AD15968DA682068FFF703FE20688E
:1028EC005021FFF725FE002017E0012015E0802283
:1028FC00520191423CD080229201914214D0702915
:10290C0038D199685A68DB682068FFF7A9FF2268FC
:10291C00936877210B43936000203D230122E254FE
:10292C00013B0022E25410BD99685A68DB682068AC
:10293C00FFF796FF226891688023DB010B439360BD
:10294C000020EAE75968DA682068FFF7DDFD2068A7
:10295C006021FFF7EDFD0020DFE75968DA68206899
:10296C00FFF7C0FD20684021FFF7E2FD0020D4E70F
:10297C000020D2E70120D0E70220D4E78800CEFF68
:10298C0030B53C23C35C012B2DD03C230122C25417
:10299C0001330132C254026853689568134CA24249
:1029AC001CD07024A3430C682343536003680F4A64
:1029BC00934206D08022D205934202D00C4A934215
:1029CC0004D1802295438A682A439A603D230122D0
:1029DC00C254013B0022C254002030BD054C2340A0
:1029EC004C682343DDE70220F7E7C046002C01408A
:1029FC0000040040FFFF0FFF704770477047000056
:102A0C0030B5EFF31084012282F3108801680B6853
:102A1C00124D2B400B6084F31088EFF3108182F37E
:102A2C001088026893680E4C2340936081F31088E1
:102A3C00C36E012B06D08C232022C2500023C36608
:102A4C00436730BDEFF3108183F31088026813687D
:102A5C001024A343136081F31088ECE7DFFEFFFF23
:102A6C00FEFFFFEF704710B5EFF31081012383F3E6
:102A7C001088026813684024A343136081F3108804
:102A8C0088232022C25000238367FFF7EBFF10BD81
:102A9C00704710B5806A00235E228352083A835235
:102AAC00FFF7F6FF10BD7047F8B504000268D36954
:102ABC0010689168BB4D2B420BD19D0611D5850634
:102ACC0001D4CD000DD5636F002B2AD02000984780
:102ADC0027E0B54D0E002E40294223D1B34D28429C
:102AEC0020D1E56E012D00D1A4E0DD0202D54D020E
:102AFC0000D53DE11A0605D5020600D53FE10902D5
:102B0C0000D53CE15A0602D5420600D53EE11A0238
:102B1C0002D5420000D53DE1DB0102D5002800DAE8
:102B2C003CE1F8BDDD0707D5C50505D501271762C2
:102B3C00902562593A4362519A0709D5CA0707D5BD
:102B4C002268022515628E35625904273A43625178
:102B5C005A0709D5CA0707D52268042515628C3592
:102B6C00625902273A4362511A070AD5820601D4E8
:102B7C00002E06D022680826166290256259324330
:102B8C0062511A050AD5420108D5226880252D010B
:102B9C001562902562592026324362519022A25828
:102BAC00002ABED09B0608D5800601D4C90004D5E6
:102BBC00636F002B01D0200098479023E2582368C4
:102BCC009B685B0602D4282313422CD02000FFF70D
:102BDC0017FF23689B685B0621D5EFF31081012357
:102BEC0083F310882268936840208343936081F3B9
:102BFC0010888023E358002B0DD06D4A9A638023F4
:102C0C00E058FEF789FA002800D18AE78023E058C3
:102C1C00836B984785E72000FFF73AFF81E7200098
:102C2C00FFF736FF7DE72000FFF732FF90230022ED
:102C3C00E25076E7DD0600D457E7C50600D454E72A
:102C4C001023136223689B685B0655D58023E258DA
:102C5C0013685B689BB2002B00D162E75C21615A60
:102C6C00994200D85DE75E21635213681B689B068E
:102C7C000BD5022323675A33E15A0233E35AC91A9C
:102C8C0089B22000FFF70FFF4BE7EFF31080012311
:102C9C0083F3108821680A68464D2A400A6080F345
:102CAC001088EFF3108083F3108821688A689A43A8
:102CBC008A6080F31088EFF3108083F3108821680A
:102CCC008A684235FF35AA438A6080F310888C22CB
:102CDC002021A1500022E266EFF3108183F31088CB
:102CEC002268136810208343136081F310888023BB
:102CFC00E058FEF7D1F9BCE75C23E35A5E22A15AF7
:102D0C00591A89B2A35A9BB2002B00D109E70029AA
:102D1C0000D106E7EFF31085012383F310882068B8
:102D2C000268254E3240026085F31088EFF310855F
:102D3C0083F3108820688268204E3240826085F3CD
:102D4C0010888C222020A0500022E2666267EFF3EC
:102D5C00108083F31088226813681025AB4313602E
:102D6C0080F31088022323672000FFF79CFED8E62F
:102D7C0080235B031362200000F0BAFED1E6A36F40
:102D8C00002B00D1CDE620009847CAE62000FFF7C3
:102D9C006AFEC6E6200000F0ADFEC2E6200000F0A0
:102DAC00A8FEBEE60F080000010000102001000480
:102DBC009F2A0008FFFEFFFFDFFEFFFFFEFFFFEF75
:102DCC0010B56023C35A8C228258222A05D002687F
:102DDC00936908210B43936110BD0268526ADBB200
:102DEC00816D13400B70836D013383655E22835AB2
:102DFC00013B9BB28352835A9BB2002BECD1EFF375
:102E0C00108C5D3A82F3108801680B68194C2340D2
:102E1C000B608CF31088EFF3108C82F31088016830
:102E2C008B6893438B608CF310888C231F32C250B9
:102E3C00002343670367C36E012B17D10023C366BE
:102E4C00EFF31084013383F3108801680B68103A98
:102E5C0093430B6084F310880368D9690A4200D04D
:102E6C001A625C23C15AFFF71EFEB5E7FDF75AFD47
:102E7C00B2E7C046DFFEFFFF10B56023C25A2C3309
:102E8C00C358222B05D00268936908210B43936128
:102E9C0010BD03685B6A816D13400B80836D023338
:102EAC0083655E22835A013B9BB28352835A9BB249
:102EBC00002BEDD1EFF3108C5D3A82F31088016892
:102ECC000B68194C23400B608CF31088EFF3108CBB
:102EDC0082F3108801688B6893438B608CF31088A5
:102EEC008C231F32C250002343670367C36E012B30
:102EFC0017D10023C366EFF31084013383F31088DA
:102F0C0001680B68103A93430B6084F310880368D4
:102F1C00D9690A4200D01A625C23C15AFFF7C3FD7B
:102F2C00B6E7FDF7FFFCB3E7DFFEFFFFF0B5CE46DB
:102F3C00474680B583B004006023C35A01930368ED
:102F4C00DD691A6890469A6891468C228258222A2A
:102F5C0008D09A6908210A439A6103B0C0BCB946EB
:102F6C00B046F0BD6823C65A40E09023E358002BCE
:102F7C0079D15E23E35A9BB2002B37D1EFF310804B
:102F8C00012282F3108821680B684F4F3B400B6085
:102F9C0080F31088EFF3108182F310882268936815
:102FAC004A480340936081F310888C232022E2501E
:102FBC00002363672367E36E012B5BD10023E36679
:102FCC00EFF31080013383F3108821680B68103AFB
:102FDC0093430B6080F310882368D9690A4200D0B0
:102FEC001A625C23E15A2000FFF75DFD002E45D0EC
:102FFC00AD0643D523685B6A6A461279A16D13400E
:10300C000B70A36D0133A3655E22A35A013B9BB2E7
:10301C00A3522368DD696A07ABD0EA0708D542469C
:10302C00D20505D5012119629022A3580B43A35058
:10303C00AB070AD54B46DB0707D5236802221A6279
:10304C008E32A35804210B43A3506B078DD54B46EE
:10305C00DB078AD5236804221A628C32A35802211A
:10306C000B43A35081E72000FFF712FD90230022B1
:10307C00E2507EE72000FDF755FCB7E75E23E35AEC
:10308C009BB2002B00D168E76822A25A9A4200D862
:10309C0063E7EFF31080012282F3108821688B68BC
:1030AC000B4D2B408B6080F310880A4B6367EFF35A
:1030BC00108182F310882268136820200343136068
:1030CC0081F3108849E7C046FFFEFFFFFEFFFFEFCC
:1030DC00FFFFFFEFCD2D0008F8B5DE4657464E46F4
:1030EC004546E0B504006023C55A0368DF691A68D9
:1030FC0090469A6891468C228258222A09D09A6965
:10310C0008210A439A61F0BCBB46B246A946A046C8
:10311C00F8BD6823C65A43E09023E358002B7AD1BC
:10312C005E23E35A9BB2002B3AD1EFF310800133AC
:10313C009B4683F3108821680B689A464E4B524687
:10314C001A400A6080F31088EFF310818BF310881B
:10315C002268936849480340936081F310888C235C
:10316C002022E250002363672367E36E012B59D1C1
:10317C000023E366EFF31080013383F3108821689A
:10318C000B68103A93430B6080F310882368D9695D
:10319C000A4200D01A625C23E15A2000FFF783FC3C
:1031AC00002E43D0BF0641D523685B6AA26D2B402D
:1031BC001380A36D0233A3655E22A35A013B9BB21D
:1031CC00A3522368DF697A07AAD0FA0708D54246CA
:1031DC00D20505D5012119629022A3580B43A350A7
:1031EC00BB070AD54B46DB0707D5236802221A62B8
:1031FC008E32A35804210B43A3507B078CD54B462E
:10320C00DB0789D5236804221A628C32A358022169
:10321C000B43A35080E72000FFF73AFC90230022D9
:10322C00E2507DE72000FDF77DFBB9E75E23E35A12
:10323C009BB2002B00D166E76822A25A9A4200D8B2
:10324C0061E7EFF31080012282F3108821688B680C
:10325C000B4D2B408B6080F310880A4B6367EFF3A8
:10326C00108182F3108822681368202003431360B6
:10327C0081F3108847E7C046FFFEFFFFFEFFFFEF1C
:10328C00FFFFFFEF852E0008F8B504008368026984
:10329C00134342691343C269134301680A689A488D
:1032AC00024013430B602268536898490B40E16855
:1032BC000B435360A1692268954B9A4201D0236A53
:1032CC0019439368934803400B4393602268D36A75
:1032DC000F218B43616A0B43D36223688E4A93425E
:1032EC001CD08E4A93424AD0894A934227D010224E
:1032FC0087498B424DD0E06980231B02984200D154
:10330C0091E0042A00D1EBE000D9C0E0002A00D102
:10331C00C4E0022A00D0B8E08148C3E0814A516D74
:10332C0003220A40022A22D005D8002A21D0012AE1
:10333C0021D10332DCE7032A1FD10532D8E7794AC1
:10334C00526DC02109010A40802109018A4218D01E
:10335C0007D8002A17D08021C9008A4215D104222F
:10336C00C6E7C02109018A4211D10822C0E7022216
:10337C00BEE70022BCE71022BAE71022B8E7002211
:10338C00B6E70222B4E70022B2E71022B0E710221F
:10339C00AEE7042A43D007D8002A0CD0022A01D168
:1033AC005F4D0EE0012092E0082A02D180252D020B
:1033BC0007E001208BE0FEF787FF0500002D00D110
:1033CC0091E0626A584B5200D75A39002800FCF73A
:1033DC006FFE666873009B19834200D985E0330346
:1033EC00834200D283E03A00002328000021FCF73E
:1033FC00D5FF050E0B022B4302027008002180182A
:10340C00594132000023FCF7C9FF484BC218484B06
:10341C009A4200D96DE02368D860002057E0FEF78F
:10342C002BFE0500CAE7042A2CD007D8002A09D0A5
:10343C00022A01D13A4809E0012048E0082A05D0C7
:10344C00012044E0FEF740FF002854D0626A364B5E
:10345C005200D15AFCF72CFE400061684B08C01892
:10346C00FCF726FE0200103A324B9A4245D882B243
:10347C000F239A434008083B034013432268D36050
:10348C00002024E0FEF7F8FDDEE701201FE0082A0B
:10349C0002D18020000205E0012018E0FEF714FFA5
:1034AC0000282CD0626A204B5200D15AFCF700FE47
:1034BC0061684B08C018FCF7FBFD0200103A1D4B6D
:1034CC009A421ED823680004000CD8600020012307
:1034DC006A22A352023AA35200236367A367F8BD82
:1034EC00FEF7CAFDDCE70020F1E70120EFE7012041
:1034FC00EDE70120EBE70020E9E70120E7E70020FA
:10350C00E5E70120E3E7C046F369FFCFFFCFFFFFFC
:10351C0000800040FFF4FF110038014000440040DF
:10352C000024F400001002403CCD000800FDFFFF19
:10353C00FFFC0F00EFFF0000836ADB0706D5026873
:10354C0053682C490B40C16A0B435360836A9B0739
:10355C0006D50268536828490B40016B0B43536036
:10356C00836A5B0706D50268536824490B40416B9C
:10357C000B435360836A1B0706D5026853682049C6
:10358C000B40816B0B435360836ADB0606D50268E4
:10359C0093681C490B40C16B0B439360836A9B0679
:1035AC0006D50268936818490B40016C0B43936075
:1035BC00836A5B060BD50268536814490B40416C57
:1035CC000B435360426C80235B039A420AD0836A9C
:1035DC001B0606D5026853680D490B40C16C0B43A2
:1035EC0053607047026853680A490B40816C0B4367
:1035FC005360ECE7FFFFFDFFFFFFFEFFFFFFFBFF4C
:10360C00FF7FFFFFFFEFFFFFFFDFFFFFFFFFEFFF7E
:10361C00FFFFF7FFFFFF9FFFF8B5CE46474680B58B
:10362C0006000D0017009946089B98463368DC6924
:10363C002C40641B63425C41BC4257D1434601336E
:10364C00F4D0FDF7B1FC4B46C01A40452ED843468A
:10365C00002B2BD0326813685B07E7D5D3691B05A9
:10366C00E4D580231B011362EFF31080012282F357
:10367C00108831680B68204C23400B6080F3108855
:10368C00EFF3108082F3108831688B6893438B6062
:10369C0080F3108820238732B3500432B3500432A5
:1036AC00B35064330022F254032020E0EFF3108077
:1036BC00012282F3108831680B680F4C23400B6099
:1036CC0080F31088EFF3108082F3108831688B68D8
:1036DC0093438B6080F3108820238732B3500432DD
:1036EC00B35064330022F254032000E00020C0BC2D
:1036FC00B946B046F8BDC0465FFEFFFFF0B5C64602
:10370C0000B582B004000D0090461E008823C358FB
:10371C00202B5CD100295FD0002A5FD082688023E7
:10372C005B019A4204D10369002B01D1CB0757D41A
:10373C0090230022E250083B2132E250FDF734FC8A
:10374C00070054234246E2520233E252A26880231D
:10375C005B019A4202D00023984613E02369002BA8
:10376C0025D0002398460DE043461B882268DB05D4
:10377C00DB0D936202239C46E0445623E25A013A45
:10378C0092B2E2525623E35A9BB2002B12D000960F
:10379C003B00002280212000FFF73EFF002821D1B2
:1037AC00002DE1D02A7823689A620135E5E7A84616
:1037BC000025E7E700963B00002240212000FFF7A0
:1037CC002BFF002810D188232022E25000E0022099
:1037DC0002B080BCB846F0BD0120F9E70120F7E744
:1037EC000120F5E70320F3E70320F1E730B583B0C0
:1037FC00040090230022C250FDF7D6FB050023687D
:10380C001B681B0710D423681B685B0719D4202383
:10381C008822A3500432A3500023E3662367083A9E
:10382C00A354002003B030BD80210C4B0093030047
:10383C00002289032000FFF7EFFE0028E3D00320CD
:10384C00F0E78021054B00932B000022C9032000D8
:10385C00FFF7E2FE0028DAD00320E3E7FFFFFF01C9
:10386C0010B5041E30D08823C358002B22D08823D7
:10387C002422E2502268136801218B43136020003C
:10388C00FFF702FD012814D0A36A002B18D122687F
:10389C0053680E490B405360226893682A218B436E
:1038AC0093602268136829390B4313602000FFF7DB
:1038BC009DFF10BD84330022C254FDF71BFAD6E7DE
:1038CC002000FFF739FEE2E70120F2E7FFB7FFFF28
:1038DC0010B581655C23C2520233C2520023436788
:1038EC008368802149018B4208D0002B15D10369D4
:1038FC00002B0ED16033FF21C15215E00369002B60
:10390C0003D160334649C1520EE06023FF21C152FE
:10391C000AE060237F21C15206E0802149058B42D9
:10392C0031D060230021C15290230021C150043BAF
:10393C002231C150EFF3108C012484F310880168FC
:10394C008B6823438B608CF31088416E80239B051E
:10395C00994223D0826880235B019A424CD0314B30
:10396C0043670369002B4DD0EFF31081012383F3E0
:10397C001088026810682033FF330343136081F30F
:10398C001088002010BD0369002B03D160337F2108
:10399C00C152C9E760233F21C152C5E76823C35A0E
:1039AC009342D7D8826880235B019A421ED01E4B6B
:1039BC0043670369002B0BD0EFF31081012383F3D2
:1039CC00108802681468FF332343136081F3108856
:1039DC00EFF31081012383F3108802689068802331
:1039EC005B050343936081F31088CAE70369002BDE
:1039FC00DDD10E4B4367DCE70369002BAFD10C4BD9
:103A0C004367AEE7EFF31081012383F3108802685C
:103A1C00136820200343136081F31088B1E7C0467C
:103A2C00FF010000CD2D0008392F0008E5300008FB
:103A3C00852E000870B58C23C358202B26D1002965
:103A4C0026D0002A26D0846880235B019C4204D1B6
:103A5C000369002B01D1CB071ED40023C366036876
:103A6C000E4CA3420FD05B681B020CD5EFF3108CED
:103A7C00012383F31088046825688023DB042B431F
:103A8C0023608CF31088FFF723FF00E0022070BD49
:103A9C000120FCE70120FAE70120F8E70080004054
:103AAC00F8B50400436E002B05D101336A22835212
:103ABC00023A8352F8BD026895686D0E07231D40CB
:103ACC009268520F1340084FF85CC000074EF15C2F
:103ADC00FCF778FB6A23E052785DC000715DFCF75F
:103AEC0071FB6823E052E5E75CCD000854CD00087B
:103AFC00704770477047000070B58423C35C012B7E
:103B0C0015D08424012606558825242343510268A8
:103B1C0013681168B1431160064A134000224266D3
:103B2C0001680B60202343510255002070BD022018
:103B3C00FCE7C046FFFFFFDFF8B504000A00842352
:103B4C00C35C012B1BD084250120605588262423BF
:103B5C00A35123681F681968814319602068836822
:103B6C00DB00D908114381602000FFF799FF23681F
:103B7C001F602023A351002363550020F8BD0220B1
:103B8C00FCE70000F8B504000B008422825C012ADB
:103B9C001BD084250120605588262422A25122683E
:103BAC0017681168814311602268916808480140C8
:103BBC00194391602000FFF773FF23681F602023D7
:103BCC00A351002363550020F8BD0220FCE7C0463A
:103BDC00FFFFFFF1F0B557464E464546DE46E0B5D1
:103BEC0004000D009246994683B08B4230D82DD0FC
:103BFC0049465046FCF710FC290006002000FCF753
:103C0C000BFC331A9846203B34D49B4653465A46F9
:103C1C00934042461F00534693401E00AF423BD890
:103C2C00AF4200D179E05B46A41BBD41002B00DA0A
:103C3C0076E0002200230092019301235A46934020
:103C4C000193012342469340009329E08242CFD94D
:103C5C0000220023009201930C9B002B01D01C60CE
:103C6C005D600098019903B0F0BCBB46B246A94612
:103C7C00A046F0BD42469B4620239B1A5246DA4092
:103C8C00414613004A468A40170042461F4353469A
:103C9C0093401E00AF42C3D900220023009201932F
:103CAC004346002BD8D0FB0772081A4346467B08C4
:103CBC000EE0AB4201D1A2420CD8A41A9D410120C6
:103CCC0024196D410021013E24184D41002E06D0CF
:103CDC00AB42EED9013E24196D41002EF8D100986B
:103CEC0001995B4600196941002B24DB2B005A46D5
:103CFC004446D3402A00E2401C005B461500002BD2
:103D0C002ADB26009E40330026004746BE40320088
:103D1C00801A9941009001919EE7A342BCD882E79A
:103D2C004246202300219B1A00220091019201227D
:103D3C00DA40019285E7424620239B1A2A00464628
:103D4C009A402300F340444613432A00E2401C00EF
:103D5C005B461500002BD4DA42462F0020232600A8
:103D6C0097409B1ADE403B003343CDE7F0B5C64687
:103D7C0043025B0A9C461F00DE004B025A0A4500B8
:103D8C0090464A002D0E120EC40F00B5C90F9B09A8
:103D9C00A81A8C4221D000280DDD002A2DD1002B31
:103DAC0000D195E0421E012800D131E1FF2800D15D
:103DBC0094E0100027E0002862D0501B002D00D0AA
:103DCC00E1E0002E00D181E0441E012800D142E147
:103DDC00FF2800D119E12000DAE0002800DC9CE08B
:103DEC00002A69D0FF2D00D178E08022D204134341
:103DFC001B2800DC7DE001362AE0FF2D00D16DE0B0
:103E0C008022D204134301221B2807DC2021091A2B
:103E1C001A008B40C240591E8B411A43B61A7301CB
:103E2C0000D477E0B601B7093800FCF7D7FA0538AB
:103E3C008740854200DD82E020223B00401B0130A0
:103E4C00121A3E009340C6405A1E934100251E4351
:103E5C00730704D00F233340042B00D004367301B6
:103E6C0037D5681CFE2D52D08E4BC0B233409B010F
:103E7C005F0AC0053843E407204380BCB846F0BD58
:103E8C00FE206A1C104274D1002D00D0AAE0002E36
:103E9C0000D1DAE00020002BEBD08022F71AD204FC
:103EAC00174200D1ECE09B1B134200D1F2E07D4A9B
:103EBC000C0013400130DAE7002B09D0421E012818
:103ECC0000D196E0FF2809D0100091E70C001E00ED
:103EDC000500F3089C46FF2D00D091E06346002BB3
:103EEC0015D080276346FF031F437F02FF207F0A04
:103EFC00BFE72021091A1A008B40C240591E8B4182
:103F0C001343F618730105D50135FF2D54D1FF204D
:103F1C000027AEE773079DD1DBE7002813D0501BB9
:103F2C00002D50D1002ED2D0411E012840D0FF28A8
:103F3C006CD008001B286EDD15005E1C88E7594EFE
:103F4C002D1A3E4084E7FE216A1C114241D1002DFE
:103F5C006CD1002E00D190E00020002B00D188E71E
:103F6C00F318DF087F027F0A5B0100D481E7012090
:103F7C007FE7F71A7A0132D4002F00D054E70024DF
:103F8C000020002775E7FF2A3FD08024E404264355
:103F9C0001241B2808DC35001F34241AA640C54018
:103FAC00741EA6412C0034431E1B15000C0036E772
:103FBC00F6180235730120D501233B4A33407608AD
:103FCC0016401E4344E7FF2A20D08021C9040E432B
:103FDC00B0E7FF2A9BD0F6181500760838E70C00DE
:103FEC009F1B21E7002E3AD1002B4ED0C4460C006B
:103FFC0077E7F61802257301DED4F3089C460125F9
:10400C0063465F027F0AE8B233E70C00C44665E7FB
:10401C000125F61A03E731002025C140281A8640F5
:10402C00701E86410E431500F6186BE7002EEDD07E
:10403C00002B00D155E78023DB039C4500D250E7D1
:10404C00984500D34DE7C4464BE7002B97D00C00A6
:10405C00474600200DE70C009E1B0135DFE6002BC8
:10406C0000D13EE78023DB039C4500D239E798451D
:10407C0000D336E70C00C44633E747460020F8E689
:10408C00002F0BD0BF017F0AF3E680270024FF200E
:10409C00FF03EEE69B010C005F0AEAE60024002712
:1040AC00E7E6C046FFFFFFFBFFFFFF7DF0B54F4685
:1040BC004646D6464502C0B546000F1C6D0A360E64
:1040CC00C40F002E00D1C3E0FF2E77D08023ED006B
:1040DC00DB041D43002399469A467F3E7B025B0A14
:1040EC0098467B001B0EFF0F002B77D0FF2B00D1C7
:1040FC0094E042468021D200C90411438846002135
:10410C007F3BF6184B46721C0A2B73DC4B467C40EB
:10411C00022B00DCA7E0484601238340A620C00008
:10412C00034267D190208000034200D0ECE0B93804
:10413C00FF38184200D0DAE041460904090C434626
:10414C000F00280C2D041B0C2D0C6F4341435D43B9
:10415C0058436D183B0C5B19994203D980214902D5
:10416C008C4660443F0419043F0CC9198D016F1E25
:10417C00BD411B0C890E1B180D439B011D431B01DC
:10418C0000D4C6E0012369081D400D4310007F30A8
:10419C00002800DC94E06B0704D00F232B40042B89
:1041AC0000D004352B0103D5803210005E4B1D402E
:1041BC00FE2855DCAB015B0AC0B226E0002D00D016
:1041CC0078E008239946063B9A467B025B0A9846A0
:1041DC007B00FF261B0EFF0F002B87D14346002BC5
:1041EC0056D14A4601331A4391464B460121721C63
:1041FC000A2B8BDD5346022B32D0032B00D17CE0F3
:10420C005346012BC2D100200023C0051843E407FC
:10421C002043E0BCBA46B146A846F0BD3300424646
:10422C00FF33002A3FD0032249461143721C8946B2
:10423C00FF320A2973DD0F295DD18023DB031D4278
:10424C005BD042461A4258D13C00FF201343DCE7B6
:10425C00002D11D104239946033B00269A463DE7D5
:10426C00FF200023D1E7013B012B00D964E7022991
:10427C00F6D045468A46C3E72800FCF7AFF8762609
:10428C00431F9D400023764299469A46361A25E7ED
:10429C004046FCF7A3F84246431F9A40361A904614
:1042AC000021763E2EE749460232114389461E0014
:1042BC00022127E70C239946093BFF269A460DE776
:1042CC0001231B1A1B2B9EDC9E3229009540D940E2
:1042DC006A1E95410D436B0704D00F232B40042B12
:1042EC0000D004356B0116D5012000238DE73C006E
:1042FC0045468A467EE73C0045468023DB032B433C
:10430C005B02FF205B0A80E780230024FF20DB0395
:10431C007BE732003AE7AB0100205B0A75E71E0031
:10432C0003217C40F7E6C046FFFFFFF770B5041E83
:10433C000ED0FCF753F803009E20C01A96280CDC14
:10434C00082B2DD0083B9C406402640AC0B201E0EB
:10435C0000200024C005204370BD992814DC5A1F8E
:10436C009440220010490A40650709D00F252C40C3
:10437C00042C05D00432540102D59F200A40C01AE7
:10438C009201540AC0B2E5E71A0021001B32914099
:10439C000A00511E8A410521C91ACC401443E0E79A
:1043AC0064029620640AD5E7FFFFFFFBF0B5DE46FA
:1043BC00454657464E46E0B587B0009201930B0335
:1043CC001B0B9B46CA0F4B00040080465B0D0292F0
:1043DC0000D189E08A4A934238D05946420FC9002D
:1043EC000A43802109041143C2009046854A89463C
:1043FC0092469A44002300240393009E019F3B03A2
:10440C001B0B9B467B0030005B0DFD0F002B00D17E
:10441C009EE07B4A934200D18CE05946720FC90052
:10442C000A438021090411438B467649F2008C46DD
:10443C0051466344CB1A9A460021029E6E400F2CC3
:10444C0000D9EFE0704BA4001B599F465A4602431B
:10445C00914600D09DE09A4602239046082403938F
:10446C00CBE72E00002200249046654B1B0523430E
:10447C00F60733434046190007B0F0BCBB46B246C2
:10448C00A946A046F0BD0022002300249046EDE78B
:10449C00CB464246029D03990229E2D0032900D162
:1044AC0043E22E000129EED0584B5344002B00DC84
:1044BC0093E1510700D04AE25946C90106D5594645
:1044CC00534B194080238B46DB00534451498B429C
:1044DC00C8DC5946D208490711435A465B055402B9
:1044EC008846240B5B0DC1E75B460343994661D0BC
:1044FC005B46002B00D1C2E15846FBF76FFF0B2344
:10450C005B429C460200844466461D239B1B26008E
:10451C0011005846DE400839884033000343994661
:10452C0023008B4098463C4B00249B1A9A46002350
:10453C00039362E75A46009B1A43384B9C46E2446D
:10454C00002A32D102231C43002302219B4674E72C
:10455C005A46009B1A4322D05B46002B00D1A0E1A7
:10456C005846FBF73BFF020003000B3A1D27009E49
:10457C00BA1A19005846D64008398840320002430E
:10458C009346009A8A40264953448A4600219A440D
:10459C0053E79A460323D9460C2403932DE70123B2
:1045AC001C43002301219B4647E7032332000321D0
:1045BC001C4342E7002398469A4601330424039394
:1045CC001BE700238024984600260D4B24034DE75F
:1045DC0080244B462403234209D05B46234206D158
:1045EC001C4324032E009046054B240B3EE78024ED
:1045FC004B4624031C432403029E014B240B35E73A
:10460C00FF07000001FCFFFF64CD0008FF03000062
:10461C00FFFFFFFEFE0700000DFCFFFF01F8FFFF90
:10462C00F3030000CB4500D220E100D11BE10123B4
:10463C005B429C46444648460027E2445B46150EC6
:10464C001B021D43190C2B04120200951D0C9146E4
:10465C0002910395FBF7B2FD02006A430B04210C97
:10466C00804619438A420ED9009D0123AC465B4219
:10467C0061449C46E0448D4205D88A4203D9AC463D
:10468C00831E98466144881A0299FBF797FD039A9A
:10469C00240442430904240C03000C43A24206D90F
:1046AC000099013B8C466444A14200D80DE1A01A4C
:1046BC00424612041A4393464B4659461B0C1D00A6
:1046CC0004930B0449460904090C0C001B0C5C43B5
:1046DC00120C6B43884651436A43250CAC465B185D
:1046EC006344994203D9802149028C466244190CD7
:1046FC0024041B04240C8A181C19904200D29EE03E
:10470C0000D199E03C1BA742BF41009D801A7F421B
:10471C00C01B854200D10CE10299FBF74FFD039AB7
:10472C000B044243210C070019438A4208D9AC46BA
:10473C006144013F8D4203D88A4201D9871E6144EE
:10474C00881A0299FBF73AFD039A240442430904A0
:10475C00240C03000C43A24209D90099013B8C465E
:10476C006444A14203D8A24201D9831E6444414649
:10477C00A41A3A041A43049D13041B0C59434746CC
:10478C006B439C46100C47430B0CBC44634468437E
:10479C009F4203D980256D02AC4660441F0C09046E
:1047AC001B04090C3F185B18BC4206D302D0012332
:1047BC001A4379E6002B00D176E60098511E844608
:1047CC006444844200D2A8E0BC4200D2D6E000D1BE
:1047DC00E0E00A00EBE7012252420121C91A382914
:1047EC0000DD50E61F2976DD1F204042C31A5846D3
:1047FC00D8400300202904D05846694951448840C8
:10480C000243511E8A411A43072319000024114008
:10481C0013420CD00F231340042B00D1BEE0111D0A
:10482C0091429B410A005B4259075B021C0BD20868
:10483C000A439046002319E6A74200D362E75B4681
:10484C00009D013B4F4405934F459B41AC465B4259
:10485C006344C018854233D2824200D981E07DD0B6
:10486C00059B9B464EE7424500D9E0E64B46DC07EC
:10487C00580843465B081C434346DF07DEE6FBF75C
:10488C00ADFD15239C4684440200634620321C2B4C
:10489C0000DC39E62300083883409946002398460B
:1048AC0041E6FBF79BFD02000300153220331C2A66
:1048BC0000DC5BE600990838814000228B4662E6FA
:1048CC008542CDD1B945CBD8C6E7A24200D8EEE699
:1048DC00831E6444EBE633481400504482405B462C
:1048EC0017008340CC407A1E974123433B431A0068
:1048FC005B46CB40510709D00F211140042905D04C
:10490C00111D9142924152429B180A0019028BD5FB
:10491C000022012300249046A8E50A00BC4200D0E6
:10492C0045E74B4500D042E7BEE580245B462403B7
:10493C0056E61D4B1D4A5344924500DA4BE70121C4
:10494C0049420A1D8A42894149428B44B4E50F21F0
:10495C001140042900D1AFE51100F2E7BC4200D8A8
:10496C007EE702235B429C4600994F444F459B4196
:10497C00E3448C465B426344C018C3E64946009D41
:10498C00480048458941AC46494261448146023A57
:10499C006418C3E79945F1D30A00C2E7002343E743
:1049AC003E0400001E040000FF03000002FCFFFF99
:1049BC00F0B557464E46DE464546E0B589B0009206
:1049CC0001930B031B0B9A46CA0F4B000400914634
:1049DC005B0D00D1BCE1D84A934200D14AE151466B
:1049EC00420FC9000A43802109041143C2009046BA
:1049FC00D24A8A469C18002300250393009E019FEF
:104A0C003B031B0B9B46FA0F7B0030005B0D0492A3
:104A1C0000D16FE1C84A934200D153E15946720F5D
:104A2C00C9000A43802109041143C44A8B469446A9
:104A3C0000216344F0001B195C1C0A2D00DD26E1EB
:104A4C004E46049A5640F2B20092022D00DCA8E1C8
:104A5C000122AA40A6271500FF003A403D4200D093
:104A6C0013E19027BF003D4200D016E288222A4273
:104A7C0000D0EFE1414642460904090C0D00170C29
:104A8C00020C0004000C4543AC46050016007D43A7
:104A9C00A8460D007E43039204963200039E754394
:104AAC006646360CB14645444D44A84505D916001A
:104ABC00802252029046464404962E0C0596664679
:104ACC003604360CB4462D04654406955D462D0C13
:104ADC00A9465D460E002D042D0C6E43B4462E00E7
:104AEC007E43B3464E467143594488466146090C91
:104AFC00414477438B4503D9802252029046474468
:104B0C000E0CB0463E004644079666463704059E9A
:104B1C003F0CB4460904C9198C44664605965646A2
:104B2C00360CB446564637043F0C3E004643B0465E
:104B3C0066464643B24646466046360CB346039A32
:104B4C0050437A4352445A44924503D98026760204
:104B5C00B2465044160CB24682444046120490466B
:104B6C000004000C3A004E46804460466A4377438A
:104B7C004543704384467819170C3F18BD4203D93E
:104B8C00802040028146CC44059D0498A946079E8E
:104B9C00484488428941B14612043D04120CAA18BB
:104BAC004A44494255184044A9464045AD41C8467F
:104BBC006D42AB46B242924189458941D044C344CF
:104BCC00494252420A43AB45AD41D04589416D4201
:104BDC0049420D4359463F0CD219521962445202B4
:104BEC00C90D069D11438A46410229434D1EA94118
:104BFC00C00D08435946490208438046D20100D4EF
:104C0C0073E101224308024013435246D207134377
:104C1C00984653465B089A46009B9946484BE318C6
:104C2C00002B00DCE5E0424652070AD00F22414639
:104C3C000A40042A05D0043141459241884652422B
:104C4C0092445246D20106D552463E4B1A4080231E
:104C5C009246DB00E3183C4A934200DD9DE042465D
:104C6C00D108524652070A4351465B054C02240BAD
:104C7C005B0D19E052460243904600D0B3E01C0095
:104C8C000223924608250393B8E6009B9946039BA2
:104C9C00022B00D181E0032B00D1F5E0039B012B0B
:104CAC00BCD100230024002210004A461B052343DC
:104CBC00D2071343190009B0F0BCBB46B246A94653
:104CCC00A046F0BD5B46009E1E431B4BE318002E16
:104CDC0000D181E003224E461543049A5640F2B2AD
:104CEC00009280221201944664440A2D00DDB7E044
:104CFC000321ADE65B46009A134365D05B46002B5F
:104D0C0000D1E2E05846FBF769FB020003000B3AC6
:104D1C001D27009EBA1A19005846D64008398840FB
:104D2C0032000243009893468840084AE31A94469E
:104D3C000021634480E6C046FF07000001FCFFFF32
:104D4C00FF030000FFFFFFFEFE0700000DFCFFFF4E
:104D5C0053460343984630D05346002B00D1A2E073
:104D6C005046FBF73BFB0B235B429C460200844402
:104D7C0066461D239B1B260011005046DE40083959
:104D8C008840330003439A4623008B409846002307
:104D9C00694C0025A41A039330E600240022674BCB
:104DAC0082E7013D012D00D964E6009B994602295A
:104DBC00F3D0DA468046039170E700239A4601331C
:104DCC0004250024039319E6002201331D43934666
:104DDC002300002001212FE602221543002200208F
:104DEC009346022128E61C00032380460C250393DE
:104DFC0004E60121C91A382900DD52E71F2978DDA4
:104E0C001F225242D31A5246DA401300202907D0EF
:104E1C004B4A4146944652466444A240114388464C
:104E2C004246511E8A411A4307231900002411409F
:104E3C0013420BD00F231340042B7BD0131D934232
:104E4C00A4411A00644261076402240BD2080023B7
:104E5C000A4329E7049BDA4699468046039116E7F4
:104E6C000F2D0DD180245346240323420CD05B46D6
:104E7C00234209D11C43049B020099462F4B13E794
:104E8C00049BDA46994680468024534624031C43EF
:104E9C0024034246294B240B06E700238024994621
:104EAC002403264B00E7FBF799FA15239C46844410
:104EBC000200634620321C2B00DC59E70023984685
:104ECC002300083883409A4661E7FBF787FA020013
:104EDC000300153220331C2A00DC19E7020000996C
:104EEC00083A914000208B461FE7009A1C0091461F
:104EFC0094E6144B52469C4643466444A240CB4035
:104F0C001A434346A340581E834154461A43CC408F
:104F1C00530709D00F231340042B05D0131D9342C4
:104F2C0092415242A4181A0023028CD5012300246A
:104F3C000022B9E6002486E70DFCFFFFFF07000006
:104F4C003E0400001E04000070B542024300C40F72
:104F5C00FE201B0E591C550A08420CD0E02189007A
:104F6C008C466D07120B63441B051343E407234364
:104F7C002800190070BD002B14D1002D1BD0280067
:104F8C00FBF72CFA0A281CDC0B232A001B1ADA402C
:104F9C00030015339D400E4B12031B1A5B05120BBD
:104FAC005B0DE1E7002D09D0130B802212031A438D
:104FBC006D07084BD8E700230022D5E70022054BEC
:104FCC00D2E703002A000B3B9A400025E3E7C046DA
:104FDC0089030000FF070000F0B54B000F035B0DC9
:104FEC003C4C450F83B07F0A5E1C2F43009001910F
:104FFC00CA0FC50026420BD037495C18FE2C13DDB6
:10500C00FF200023C0051843D207104303B0F0BDA6
:10501C003D43002B01D10020F4E7002DF0D080237C
:10502C00DB03FF203B43EDE7002C14DD009BFF006E
:10503C009B01581E8341690F3B430B43590746D0D4
:10504C000F21194004292AD00433590127D50134E2
:10505C000023E0B2D6E72100173124DB80211E208B
:10506C0009043943001B1F2820DD02267642341B1D
:10507C000E00E6403400202804D0184884466344CF
:10508C0099400D432B00591E8B41234359071AD0CD
:10509C000F2100241940042901D0002404339B0162
:1050AC005B0AE0B2AEE700200023ABE70C4C1C1906
:1050BC002B00A540C340A140681E854129430B43EA
:1050CC0000245907BCD19B0100205B0A9AE7DB083E
:1050DC00E0B297E7FE07000080FCFFFFA2FCFFFF99
:1050EC0082FCFFFF10B5034A0349044800F0DEF8C8
:1050FC0010BDC0460C000020597A0008200000208A
:10510C0041680B4B10B50400994201D002F09EFC93
:10511C00A168084B994202D0200002F097FCE1688C
:10512C00054B994202D0200002F090FC10BDC04605
:10513C008C080020F40800205C090020F8B5CE464D
:10514C0047463B4C3B4B3C4A2000002580B51A603F
:10515C000423082200215C3025606560A56065662B
:10516C0025616561A561E36000F034F92000334BE3
:10517C00334F344E99462362334B58309846A762CE
:10518C00E6626362E46100F0F1F9CC23E5502F4B49
:10519C0020006367802300210822C430E550A566F7
:1051AC00E5662567A567E56700F014F922008423FE
:1051BC006832E2504A460433E2504246200004333F
:1051CC00E2500433E750C0300433E65000F0CEF91F
:1051DC00D0232000E5500433E5500433E5501C4A3D
:1051EC005C33E550583BE2500433E5502D3004332A
:1051FC00E550002104330822FF30E55000F0EAF8B6
:10520C002200EC23D032E2504A460433E250200014
:10521C0042460433E25029300433E750FF30043364
:10522C00E65000F0A3F9C0BCB946B046F8BDC04684
:10523C008C080020C4090020F15000083D530008E0
:10524C00A5530008D5530008655300080900010058
:10525C001200020070B50400094D280000F08AF914
:10526C00636B002B05D1074B6363074B1B68002B4B
:10527C0003D0280000F080F970BDFFF75FFFF8E75E
:10528C00D40900200D510008C409002010B50248B3
:10529C0000F070F910BDC046D409002010B50248CA
:1052AC0000F06AF910BDC046D4090020F8B5474695
:1052BC00CE46884680B58146170000267D68BC68BE
:1052CC00013D0DD4A389012B07D90E22A35E013316
:1052DC0003D021004846C04706436834013DF1D253
:1052EC003F68002FEAD13000C0BCB946B046F8BDCB
:1052FC000EB400B50B499CB0049107910A491DAB43
:10530C0005910A4904CB02900690086802A9019302
:10531C0000F07EFD0022029B1A701CB008BC03B08A
:10532C001847C046FFFFFF7F0802FFFF1800002050
:10533C0070B50C000E25495F00F0C6F8002803DBA1
:10534C00236D1B18236570BDA389024A1340A381EA
:10535C00F9E7C046FFEFFFFFF8B50C001F000C2368
:10536C00C95E05001600CB050AD40A4B3200194061
:10537C002800A1810E23E15E3B0000F0B9F8F8BDD6
:10538C000E23E15E0022022300F08AF80C23E15E7A
:10539C00EBE7C046FFEFFFFF70B50C000E25495F31
:1053AC0000F07EF8431C07D08023A2895B011343D5
:1053BC001BB22065A38170BDA389024A13401BB2A6
:1053CC00F8E7C046FFEFFFFF10B50E23C95E00F0F3
:1053DC0055F810BDF0B50500830749D0541E002ABE
:1053EC0045D003000326CAB202E00135013C3ED38E
:1053FC0001332A703342F8D1032C30D9FF220A40F2
:10540C001502AD182A04AD180F2C34D92700103F03
:10541C003F093E01B4461E001A0010366644156062
:10542C0055609560D56010329642F8D101373F0136
:10543C00DB190F270C22274022403C00002A0ED0FB
:10544C003E1FB608B400A4461A001C1D644420C2BA
:10545C00A242FCD103240136B6009B193C40002C1F
:10546C0005D0C9B21C19197001339C42FBD1F0BD97
:10547C0003001400C0E72700E2E7C046002370B524
:10548C00064C050008002360FBF7E6FC431C00D02B
:10549C0070BD2368002BFBD02B60F9E7C8090020F6
:1054AC0070B50400080011001A000023054D2B6094
:1054BC00FBF7DCFC431C00D070BD2B68002BFBD031
:1054CC002360F9E7C809002070B50400080011003A
:1054DC001A000023054D2B60FBF7A2FC431C00D0E7
:1054EC0070BD2B68002BFBD02360F9E7C8090020A6
:1054FC0070B50400080011001A000023054D2B6044
:10550C00FBF79CFC431C00D070BD2B68002BFBD020
:10551C002360F9E7C8090020014B18687047C046A2
:10552C001800002070B50D4B0D4D5E1BB610AB4234
:10553C0005D0002408CD01349847A642FAD807F0CC
:10554C00CDFA084B084D5E1BB610AB4205D00024BB
:10555C0008CD01349847A642FAD870BD60D3000834
:10556C0060D3000868D3000860D300087047C046B9
:10557C007047C0467047C0467047C046034B10B5D5
:10558C00002B02D0024800F005F810BD000000000E
:10559C00757D000810B5010000230022002002F0E8
:1055AC00A1FC10BDF0B5C646060000B508200D00E4
:1055BC0002F0EEFB0400300000F01AFC234B21003B
:1055CC0098469B685F6803239F4338001138401B43
:1055DC000019FAF76DFD451E6543AC4208DC00214D
:1055EC00300002F0AFFB43469B68DB19984206D0B3
:1055FC00300000F005FC002080BCB846F0BD300047
:10560C00694202F09FFB01300ED0012243467F1B02
:10561C009B6817430E4A5F60136830005B1B136076
:10562C0000F0EEFB0120E7E70021300002F08AFBDE
:10563C0043469A68831A0F2BDADD064C044924681A
:10564C00001B086001210B435360D1E7500100207F
:10565C00DC09002044010020F8B5CE464746050081
:10566C000C0080B5002957D000F0C2FB01232100AB
:10567C009C46083948686246030003249343CF18BC
:10568C007A68654EA243B468BC4200D170E0BC1885
:10569C00A14664467A60044221D10868091A1B1895
:1056AC00886880464846406820403400083481466B
:1056BC00A04551D04046CC68C460A0604846002844
:1056CC0011D19B185548BA68824200D17FE0F86826
:1056DC00D060826001221A434A60CB5007E04846F2
:1056EC0040682042EDD062461A434A603B608022FB
:1056FC009200934214D2DA0858090123834070684F
:10570C0003437360D3009B199A68CB608A609960DD
:10571C00D160280000F074FBC0BCB946B046F8BD9F
:10572C005C0A042C3DD89C09200039343830E40044
:10573C0034192268083C0327944203D140E0926854
:10574C00944203D05068B8439842F8D8D468CC60DF
:10575C008A60A160D160DCE7002858D1B868D21803
:10576C00FB68C3609860634613434B608A50D0E774
:10577C009A186346034206D10B68C91A8868D21876
:10578C00CB68C3609860012313434B60244BB1601A
:10579C001B689342BDD8234B28001968FFF702FF02
:1057AC00B7E7142C07D9542C1AD81C0B20006F34D3
:1057BC006E30E400BCE720005C345B30E400B7E7FB
:1057CC00012380108340706803437360BFE7D1608E
:1057DC009160CA608A6001221A434A60CB5098E7F4
:1057EC00AA225200944205D8DC0B20007834773082
:1057FC00E4009DE70C4A944205D89C0C20007D34B3
:10580C007C30E40094E7FE247E20A40090E76246FE
:10581C001A434A603B607CE750010020580100208D
:10582C00480100200C0A002054050000F0B54E463B
:10583C004546DE465746E0B50D000B35060085B0F3
:10584C00162D27D8102900D9DAE000F0D1FA10254E
:10585C0018230221C74FFB181A005C68083A9442BF
:10586C0000D146E103226368A1689343E268CA60F1
:10587C0091600121E3185A6830000A435A6000F025
:10588C00BFFA2000083005B0F0BCBB46B246A946B2
:10589C00A046F0BD07239D4300D5B1E0A94200D935
:1058AC00AEE000F0A5FAFC235B009D4200D29AE129
:1058BC00690A00D1A8E0042900D94FE138239846A1
:1058CC00A90988443931CB00082252429446A94F89
:1058DC00FB189C446346DC68A44514D0032399460A
:1058EC000B0061469C4607E0E068002A00DBFAE00A
:1058FC00814200D1FBE004004A46636893435A1B83
:10590C000F2AF1DD41463A003C690832944200D13D
:10591C00D8E0032063688343581B0F2800DD66E141
:10592C003A617A610028A4DA7A6890468022920063
:10593C00934200D3E3E0DA08580901238340404640
:10594C0018438046D300DB199A687860E360A26044
:10595C009C60D46001208B10984040455CD8434635
:10596C0003420AD1032399434346400004310342C6
:10597C0003D1400004310342FBD00323B3469C46C1
:10598C000E00B8460190F00040440100B246CB68CE
:10599C000BE064465A681F00A243DB68541B0F2CB3
:1059AC0000DDF3E0002C00DB0DE19942F1D1012385
:1059BC009946CA44534608319B07E8D1032205E0B7
:1059CC0003680838013E834200D00AE23242F7D124
:1059DC004346019A5B68934342465360019A5200D6
:1059EC0001929A4216D8002A06D113E0042291465D
:1059FC00019ACA44520001921342F7D05646C2E7AC
:105A0C000C23002033603EE780233F224021904648
:105A1C009B0059E75E4647460322BC686368934384
:105A2C009946AB4202D35B1B0F2B4EDC23004B443D
:105A3C000293514B08201B6810335B19019302F041
:105A4C00A7F94E4903900B688B46013306D0844668
:105A5C00019B4242013B6344134001933000019986
:105A6C0002F070F903008046013300D1DDE0029BA7
:105A7C00834200D9D7E0019A414B944619689A4663
:105A8C006144039A1960029B0800013A434500D017
:105A9C00EAE04346134200D0E6E0BB689846634612
:105AAC004B441A0001231A4343465A60354B18687D
:105ABC00884200D21960344B1868884200D21960B1
:105ACC004446B4E07B68984644E70122290013431E
