:020000040800F2
:100000000020002011330008193200081B320008BC
:1000100000000000000000000000000000000000E0
:100020000000000000000000000000001D32000879
:1000300000000000000000001F320008213200080C
:100040006133000861330008613300086133000840
:100050006133000861330008613300082932000869
:1000600000000000613300086133000861330008BC
:10007000613300086133000861330008353200083D
:100080006133000861330008613300086133000800
:10009000000000006133000861330008613300088C
:1000A00061330008613300086133000861330008E0
:0C00B00061330008453200080000000029
:1000BC0010B5064C2378002B07D1054B002B02D032
:1000CC00044800E000BF0123237010BDB8090020D4
:1000DC0000000000BCC30008044B10B5002B03D07B
:1000EC000349044800E000BF10BDC04600000000FA
:1000FC00BC090020BCC30008002243088B4274D307
:10010C0003098B425FD3030A8B4244D3030B8B420C
:10011C0028D3030C8B420DD3FF22090212BA030C15
:10012C008B4202D31212090265D0030B8B4219D3F6
:10013C0000E0090AC30B8B4201D3CB03C01A524116
:10014C00830B8B4201D38B03C01A5241430B8B425E
:10015C0001D34B03C01A5241030B8B4201D30B0347
:10016C00C01A5241C30A8B4201D3CB02C01A52416E
:10017C00830A8B4201D38B02C01A5241430A8B4231
:10018C0001D34B02C01A5241030A8B4201D30B021A
:10019C00C01A5241CDD2C3098B4201D3CB01C01A34
:1001AC00524183098B4201D38B01C01A524143093E
:1001BC008B4201D34B01C01A524103098B4201D32C
:1001CC000B01C01A5241C3088B4201D3CB00C01A99
:1001DC00524183088B4201D38B00C01A5241430811
:1001EC008B4201D34B00C01A5241411A00D2014636
:1001FC00524110467047FFE701B5002000F0F0F8BF
:10020C0002BDC0460029F7D076E7704703460B4382
:10021C007FD4002243088B4274D303098B425FD3F3
:10022C00030A8B4244D3030B8B4228D3030C8B421F
:10023C000DD3FF22090212BA030C8B4202D3121205
:10024C00090265D0030B8B4219D300E0090AC30BDA
:10025C008B4201D3CB03C01A5241830B8B4201D387
:10026C008B03C01A5241430B8B4201D34B03C01A70
:10027C005241030B8B4201D30B03C01A5241C30AE8
:10028C008B4201D3CB02C01A5241830A8B4201D359
:10029C008B02C01A5241430A8B4201D34B02C01A43
:1002AC005241030A8B4201D30B02C01A5241CDD2E8
:1002BC00C3098B4201D3CB01C01A524183098B4233
:1002CC0001D38B01C01A524143098B4201D34B011C
:1002DC00C01A524103098B4201D30B01C01A52417F
:1002EC00C3088B4201D3CB00C01A524183088B4206
:1002FC0001D38B00C01A524143088B4201D34B00EF
:10030C00C01A5241411A00D2014652411046704760
:10031C005DE0CA0F00D04942031000D34042534065
:10032C0000229C4603098B422DD3030A8B4212D325
:10033C00FC22890112BA030A8B420CD38901921157
:10034C008B4208D3890192118B4204D389013AD094
:10035C00921100E08909C3098B4201D3CB01C01A69
:10036C00524183098B4201D38B01C01A524143097C
:10037C008B4201D34B01C01A524103098B4201D36A
:10038C000B01C01A5241C3088B4201D3CB00C01AD7
:10039C00524183088B4201D38B00C01A5241D9D2EF
:1003AC0043088B4201D34B00C01A5241411A00D270
:1003BC000146634652415B10104601D34042002B6C
:1003CC0000D54942704763465B1000D3404201B5EB
:1003DC00002000F005F802BD0029F8D016E77047A0
:1003EC007047C046002B11D1002A0FD1002900D133
:1003FC00002802D00021C943080007B4024802A11A
:10040C004018029003BDC046D9FFFFFF03B46846F5
:10041C0001B5029800F006F8019B9E4602B00CBC98
:10042C007047C046F0B557464E464546DE46E0B5E9
:10043C0004000D009246994683B08B4230D82DD0E3
:10044C004946504601F010FA29000600200001F040
:10045C000BFA331A9846203B9B4633D45A465346E4
:10046C00934042461F00534693401E00AF423AD879
:10047C00AF4200D178E05B46A41BBD41002B00DAF3
:10048C0075E0002200230092019301235A46934009
:10049C000193012342469340009328E08242CFD936
:1004AC0000220023009201930C9B002B01D01C60B6
:1004BC005D600098019903B0F0BCBB46B246A946FA
:1004CC00A046F0BD424620239B1A5246DA404146D4
:1004DC0013004A468A40170042461F435346934036
:1004EC001E00AF42C4D90022002300920193434660
:1004FC00002BD9D0FB0772081A4346467B080EE046
:10050C00AB4201D1A2420CD8A41A9D41012024195E
:10051C006D410021013E24184D41002E06D0AB4206
:10052C00EED9013E24196D41002EF8D100980199A5
:10053C005B4600196941002B24DB2B005A464446CC
:10054C00D3402A00E2401C005B461500002B2ADB3E
:10055C0026009E40330026004746BE403200801ADB
:10056C009941009001919FE7A342BCD883E7424692
:10057C00202300219B1A0022009101920122DA40D3
:10058C00019286E7424620239B1A2A0046469A404F
:10059C002300F340444613432A00E2401C005B4610
:1005AC001500002BD4DA42462F002023260097405A
:1005BC009B1ADE403B003343CDE7C046F0B5C64640
:1005CC0043025B0A4E0245004F00DA00C40F9C4602
:1005DC00700A904600B52D0E3F0EC90FB6098C421D
:1005EC004BD0EA1B002A36DD002F61D0FF2D00D145
:1005FC00ADE08023DB041E431B2A00DCD3E001208A
:10060C004346181A430100D48CE080018709380056
:10061C0001F00CF905388740854200DCB6E02D1A54
:10062C00B3483840430704D00F230340042B00D0B9
:10063C000430430100D478E06A1CFE2D65D08001A3
:10064C00430A9C46D2B26346D0051843E4072043C4
:10065C0080BCB846F0BD002A35D07A1B002D00D0E6
:10066C00AFE04346002B00D1A7E0531E012A00D176
:10067C002FE1FF2A69D01A00AAE0E91B002970DDDE
:10068C00002F37D0FF2D62D08023DB041E431B29A3
:10069C0000DCB0E001204044430143D50135FF2D7F
:1006AC0033D00123934A0340400810401843B9E764
:1006BC00002E00D183E0511E012A00D1D8E0FF2A80
:1006CC0045D00A0098E7FE276A1C174200D086E046
:1006DC00002D00D0B7E04346002B00D1F3E0002200
:1006EC00002EB0D0981B430100D4FAE043460C0016
:1006FC00F01A97E7002E00D1C8E04A1E012900D15C
:10070C00AEE0FF2923D01100C1E70023FF229C4655
:10071C0099E7FE216A1C114277D0FF2AF5D015000B
:10072C0046447008430700D07EE7C308FF2D0ED067
:10073C005B025B0A9C46EAB285E7002E07D080225A
:10074C00D203134203D0104201D10C000300002B42
:10075C00DBD08020C00318434002430A9C46FF2292
:10076C0071E70029D5D07A1B002D60D14346002BB0
:10077C0024D0531E012A73D0FF2AE7D01A001B2A5B
:10078C0000DC85E001203D00801985E720233A003C
:10079C00451B38000135EA405D1BA840431E9841BB
:1007AC00002510433EE7202330009B1A310098406F
:1007BC00D140431E9841084322E70C00030015006A
:1007CC00B4E7FF2FC1D080234046DB04184380469A
:1007DC001B2A51DD01200C003D00301A12E7434664
:1007EC009F1B7B012BD4002F00D010E7002300248B
:1007FC0000229C4627E7202332003000CA40591AB9
:10080C008840431E9841104345E7002D4AD143468A
:10081C00002B63D00022002E00D114E7300040449E
:10082C00430100D47EE7324B013518407AE7FF2FA5
:10083C008CD080234146DB04194388469FE743460E
:10084C000C00F71AE3E64246002A00D075E7002EAA
:10085C0000D07AE78023DB0300249C46FF22F2E6DB
:10086C00300040440125430100D45BE7022518E722
:10087C0043460125981BC5E6202344464046D440F8
:10088C009A1A9040431E98412043A4E70D004DE76F
:10089C00202341464046D1409A1A9040431E98412D
:1008AC00084370E74246002A00D14FE7002E00D1E2
:1008BC004DE78022D203134200D148E7104200D00A
:1008CC0045E7030043E7002E90D00C00844600223D
:1008DC00B9E643460C00F01A013593E68446002233
:1008EC00B1E6002800D01DE7002300249C46AAE6B0
:1008FC00FFFFFFFBFFFFFF7DF0B54F464646D64698
:10090C0044024500C0B5640A0F1C2D0EC60F002D05
:10091C0000D18DE0FF2D00D192E00023802099467C
:10092C009A46E400C00404437F3D7802430A98468B
:10093C007B001B0EFF0F002B00D170E0FF2B00D1B2
:10094C0086E04246D00080227F3BED180023D20483
:10095C00024390469C4631004B467940681C0F2B55
:10096C001CD8764A9B00D3589F4639004446E24631
:10097C005346022B0FD0032B00D1D7E0012B37D1DC
:10098C0000200024C0052043C9070843E0BCBA4638
:10099C00B146A846F0BDFF200024F3E7260C240442
:1009AC00220C44462404240C434627001B0C5743BA
:1009BC0074435A435E4312193B0C9B189C4203D957
:1009CC0080225202944666443F041A043F0CD2190A
:1009DC009401671EBC411B0C920E9B1914439B0186
:1009EC001C431B0100D49BE0012362081C401443F0
:1009FC0002007F32002A64DD630704D00F232340FA
:100A0C00042B00D00434230103D502004C4B80325C
:100A1C001C40FE2ABFDCA401640AD0B2B2E74346F4
:100A2C00002B3DD14A4601331A4391469C4692E72E
:100A3C00002C29D104239946033B00259A4674E7E0
:100A4C00002C1BD108239946063BFF259A466CE7E0
:100A5C004346FF35002B0BD102234A461A439146DD
:100A6C009C4678E753463100022B00D083E792E78F
:100A7C0003234A461A4391469C466CE70C2399463D
:100A8C00093BFF259A4650E7200000F0CFFE762563
:100A9C00431F9C4000236D4299469A462D1A44E709
:100AAC00404600F0C3FE4246431F9A4000232D1AD5
:100ABC0090469C46763D4EE780240021FF20E403BF
:100ACC0060E701239B1A1B2B00DD59E722009E30A7
:100ADC00DA4084401300621E94411C43630704D027
:100AEC000F232340042B00D0043463011AD50120BA
:100AFC00002447E78020C003044209D04346034248
:100B0C0006D14446044364023900FF20640A39E7E5
:100B1C008020C003044364023100FF20640A31E7E3
:100B2C00280065E7A4010020640A2BE78020C0039D
:100B3C0004436402FF20640A24E7C046D8C30008BB
:100B4C00FFFFFFF770B5051E0ED000F06FFE9E2361
:100B5C0004001B1A962B0CDC082801DD083CA54070
:100B6C006D026D0AD8B201E000200025C0052843B3
:100B7C0070BD992B09DD020029001B3291404A1EE1
:100B8C0091410522121AD5400D43052C12DC290087
:100B9C000C4E31406A0709D00F202840042805D09C
:100BAC0004314A0102D59F2331401B1B89014D0A98
:100BBC00D8B2DBE7621F95402900024E31406A072C
:100BCC00F4D0E9E7FFFFFFFBF0B557464E4645462C
:100BDC00DE46E0B5814605000C03480092461F0036
:100BEC0085B0240B400DCE0F002800D156E1D44B1C
:100BFC00984200D172E16B0FE4001C4380231B046C
:100C0C0023439846CF4BED009B46002399468344E3
:100C1C0000933C037B005046240B5B0DFF0F002B15
:100C2C0000D11FE1C64A934200D162E1C549420F8F
:100C3C008C46E40059461443802263441204CB1AB8
:100C4C0014439B46C200002033007B409A464B461F
:100C5C000F2B27D8BC499B00CB589F46B246009B14
:100C6C00022B16D0032B00D18EE2012B00D0D9E041
:100C7C0000230024002552461B052343D2071343AF
:100C8C002800190005B0F0BCBB46B246A946A046E8
:100C9C00F0BD00240025AA4BEDE7BA46A04615008E
:100CAC000090DCE7444500D2C7E100D1C2E101234A
:100CBC005B429C462E0040460025E3442302140E62
:100CCC001C431B0C994623041F0C1202494600922C
:100CDC000197FFF797FA02007A430B04310C804618
:100CEC0019438A4207D901235B429C460919E04407
:100CFC008C4200D807E2881A4946FFF783FA0904A8
:100D0C008C4631046646019A090C42430300314378
:100D1C008A4204D90919013B8C4200D8EDE1881AAA
:100D2C00424612041A4390464146009B0E041B0C8B
:100D3C001F000293009B360C1B04190C0B00734311
:100D4C00120C7E43039151437A431F0CBC46761818
:100D5C006644B14203D9802149028C466244310C6D
:100D6C008A1831041E04360C8E19904202D312D10B
:100D7C00B54210D24346591E009B9C4665441F0049
:100D8C009D429B415B421B19C018844200D2A0E1DA
:100D9C0000D19BE18846AE1BB542AD41801A6D4235
:100DAC00401B844200D1D5E14946FFF72BFA019A4A
:100DBC000B044243310C050019438A4200D96CE103
:100DCC00881A4946FFF71EFA019A36044243090471
:100DDC00360C03000E43B24200D953E10398B61A05
:100DEC0002002D041D43029F2B041B0C5A437B4312
:100DFC009C46290C4843130C844463447943984221
:100E0C0003D98020400284466144180C12041B0450
:100E1C00120C41189B188E4200D2FFE000D1FAE070
:100E2C0001231D43494A5A44002A00DCAAE06B07FF
:100E3C0000D03DE1ED084346DB0106D54246444B6C
:100E4C001A4090468022D2005A44424B9A4200DD0E
:100E5C001FE743465B071D43434652055C02240BC8
:100E6C00530D08E75246224300D17BE0002C00D101
:100E7C00FAE0200000F0DAFC02000B3A1D2301001E
:100E8C009B1A52460839DA408C40144352468A4029
:100E9C00314B58449B4683440020D5E64B462343B4
:100EAC00984644D0002C00D1CEE0200000F0BEFCCF
:100EBC00010002000B391D235B1A49461000D94072
:100ECC00083884400B004D46234398468540234800
:100EDC00831A9B460023994600939AE64B4623437C
:100EEC0098461DD108239946063B0025834600935E
:100EFC008FE65246224309D1022349461943184B27
:100F0C0089469C4600240220E3449DE603234A467E
:100F1C001A43134B91469C4652460320E34493E6F6
:100F2C000C239946093BA0468346009371E60423A3
:100F3C00994600239B4601330025009369E6C04681
:100F4C00FF07000001FCFFFF18C40008FF030000AE
:100F5C00FFFFFFFEFE070000F30300000DFCFFFF88
:100F6C0001F8FFFF4946012319438946002401205B
:100F7C006AE6002380249A4600258A4B24037AE6ED
:100F8C0001256D4201239B1A382B00DD70E61F2BC7
:100F9C0000DCBFE01F2149428A1A4146D1400A00B9
:100FAC00202B04D04146804B5B4499400D436B1E73
:100FBC009D4107232A431D0000241540134200D1F4
:100FCC00D4E00F2100231140042900D1CBE0111DE6
:100FDC009142924152429B180A00190200D4C2E07D
:100FEC0001230024002546E6802341461B031942B9
:100FFC0008D01C4206D11C432403BA461500694B89
:10100C00240B38E68024434624031C432403B246B5
:10101C00644B240B2FE6002B00D103E7A619681EA6
:10102C00A64200D28DE08E4200D2A3E000D1B3E004
:10103C000500F5E6AA4200D939E64346DE07580812
:10104C006B081E43ED0739E6484600F0EFFB010044
:10105C000200153120321C2900DC2CE74B460838E5
:10106C0083400025984632E700F0E0FB03001A00AD
:10107C00153220301C2A00DC00E75446083B0022C5
:10108C009C4005E73619013BB44200D9A6E6B242B2
:10109C0000D8A3E6831E3619A0E60919013D8C423F
:1010AC0000D98DE68A4200D88AE6851E091987E6A2
:1010BC000F232B40042B00D1BCE605235B42AB4233
:1010CC009B4104355B42ED089844B4E6AF4200D92D
:1010DC0060E6824204D800D05CE6AE4200D859E605
:1010EC0002235B429C46009BE0449C4665449D4227
:1010FC009B415B421B19C0184DE68A4200D80EE694
:10110C00831E09190BE68A4200D8F4E5831E984623
:10111C000919F0E52549280059448D4042468A407A
:10112C00691E8D414146D840D94002432A430B00E9
:10113C00510700D151E70F211140042900D046E797
:10114C004BE705008E4200D06AE6009A934200D02D
:10115C0066E667E6164A5A44002A00DC10E70123CB
:10116C000025984467E65D075B021C0BD208002340
:10117C00154380E50098023D42008242BF417F4208
:10118C003C1936190092DDE78024434624031C43A6
:10119C002403044B240B6EE5009A9A42EAD3050013
:1011AC00D3E7C046FF0700003E0400001E04000009
:1011BC00FF030000F0B557464E464546DE46E0B507
:1011CC0098460C034B000600924687B0240B5B0D2F
:1011DC00CF0F002B00D15CE1D94A934200D175E1CD
:1011EC00420FE4001443802212041443D54AC50074
:1011FC00944663440093002399469B4643464246DB
:10120C001E03D20F5B0050469046360B5B0D00D18F
:10121C0020E1CB4A934200D162E1CA49420F8C468D
:10122C0000996344F6008C46164380229C441204B9
:10123C0063461643C20000200093009943460131D7
:10124C008C4649467B4001930F2926D8BE4B89001A
:10125C0059588F46434601933400150083465B462C
:10126C00022B16D0032B00D103E2012B00D0CDE0D2
:10127C00002200240025019B12052243DB071A43A0
:10128C002800110007B0F0BCBB46B246A946A046E8
:10129C00F0BD00240025AA4AEDE7280C2D042D0CE6
:1012AC002B00110C1204120C5343984613002F0000
:1012BC00434399464F434F44BB4647460B003F0CB4
:1012CC00BA464343DA440293D14504D980277F02BE
:1012DC00B9464B44029353461B0C9B4653461F0482
:1012EC0043461B041B0C98463B0043440493330CAD
:1012FC003604360C984633004343994643464343E1
:10130C002F009A46434677435D43380C4D444519AC
:10131C00A94503D980235B029946CA443F04280C93
:10132C003F0C2D04ED19270C2404240C0300200081
:10133C0050437A4391463A0053440593030C9A4622
:10134C004A43614349445144AB44894503D9802302
:10135C005B0299464A4400040B0C000C0904091862
:10136C0020009946434670435C437E435F43030C25
:10137C009846A41944444A440397A64204D98023AE
:10138C005B029846474403972304029E9A46059BAA
:10139C005E449846AE42AD4176188E4289410004B7
:1013AC00000C504440446D424719B846934649429C
:1013BC008946C344D94498428041A845AD419345E0
:1013CC009241894589416D4240422843240C524246
:1013DC0049420A43039B00198018C7184B46DC0D81
:1013EC00049B75021D436A1E95414B46F60D7F0208
:1013FC0035435A023C431543FB0100D41CE1012147
:10140C006A080D401543E207154364084F496144CF
:10141C00002900DCB0E06B0709D00F222A40042A17
:10142C0005D02A1DAA42AD416D4264191500E30195
:10143C0004D58021464AC90014406144454A914272
:10144C0000DD26E76207ED08640249051543240B0D
:10145C004A0D10E75246324300D17FE0002E00D1F6
:10146C00DCE0300000F0E2F902000B3A1D23010031
:10147C009B1A52460839DA408E40164352468A402F
:10148C00009B3549181A03008C46634400200093D6
:10149C00D3E6250005434AD0002C00D1B0E0200053
:1014AC0000F0C4F9010002000B391D2310005B1A77
:1014BC003100350008388440D94085400C4326481B
:1014CC00831A0093002399469B4697E60500254313
:1014DC0026D1082200930223002491469B468DE6D8
:1014EC005246009B324310D1154900268C4663446A
:1014FC004946009302231943894602209DE65B4628
:10150C000197022B00D0ADE6C3E60D4A03209446AA
:10151C0063444A46009303231A43914652468CE691
:10152C000C2200930323050091469B4666E6042398
:10153C00994600230093013300249B465EE6C04687
:10154C00FF07000001FCFFFF58C40008FF03000068
:10155C00FFFFFFFEFE0700000DFCFFFF49460123C5
:10156C00194389460026012067E6002380240025C4
:10157C00434A019324037EE60120401A382800DDFB
:10158C0076E61F285BDD1F2223005242511ACB4006
:10159C001900202803D03B4A6244944025436A1E1C
:1015AC0095412A000A4307210D00002415401142E1
:1015BC005BD00F2100241140042953D0111D9142FE
:1015CC0092415242A4180A0023024BD50122002456
:1015DC00002550E680231B031C4209D01E4207D174
:1015EC0033431C0343461500240B254A019342E662
:1015FC008022120314432403214A240B01973AE658
:10160C0000F014F901000200153120321C2900DC15
:10161C004BE7340008380025844050E700F006F909
:10162C0003001A00153220301C2A00DC1EE7564637
:10163C00083B00229E4023E7009B9C46E6E61249AD
:10164C00220061442E008D408A40C640691E8D41A7
:10165C0032432A43C4405307B6D00F21114004290A
:10166C00ACD1B1E765076402240BD2081543002204
:10167C0001E68022120314432403014A240BFAE5E9
:10168C00FF0700003E0400001E04000070B543007C
:10169C004602C40FFE201B0E591C750A08420CD0C2
:1016AC00E022920094466D07360B63441B053343CE
:1016BC00E40723432800190070BD002B14D1002D22
:1016CC001BD0280000F0B2F80A281CDC0B232E00DB
:1016DC001B1ADE40030015339D400E4A3603121AC6
:1016EC005205360B530DE1E7002D09D08022360B45
:1016FC001203094B6D071643D8E700230026D5E7E4
:10170C000026054BD2E703000B3B9D402E00002525
:10171C00E3E7C04689030000FF07000002004B000E
:10172C00F0B55B0D0C033D4E640A400F5F1CC90FF6
:10173C000443D50037420AD039481E18FE2E16DD58
:10174C00FF200024C0052043C9070843F0BD002B2F
:10175C0006D12C4326D005229201540AD8B2F1E7C7
:10176C002543EDD08020C0030443FF20EAE7002E80
:10177C001BDD9201531E9A41E4006D0F22432A4354
:10178C00530748D00F231340042B00D0043280237E
:10179C00DB0413403FD0701CFE2ED1D09201540AB2
:1017AC00C0B2CFE700200024CCE73200173222DB96
:1017BC008020000420431E24A41B1F2C1DDD0222AC
:1017CC005242961B0200F2401600202C04D0154AFF
:1017DC0094466344984005432A00531E9A41324371
:1017EC0000265307CED180241300E40401202340AB
:1017FC002242D3D1B0E70023ADE70B4A94462A002E
:10180C00E24014002A0063449A409840551EAA41B5
:10181C0002432243E4E733009EE7C046FE07000084
:10182C0080FCFFFFA2FCFFFF82FCFFFF1C210123B9
:10183C001B04984201D3000C10391B0A984201D3A7
:10184C00000A08391B09984201D30009043902A285
:10185C00105C40187047C0460403020201010101EC
:10186C00000000000000000010B5002903D1FFF7B4
:10187C00DDFF203002E00800FFF7D8FF10BDC046A6
:10188C008446100062468C461900634600E0C04650
:10189C001FB500F017FC002801D40021C8421FBD61
:1018AC0010B500F067FB4042013010BD10B500F0E0
:1018BC0009FC002801DB002010BD012010BDC04632
:1018CC0010B500F0FFFB002801DD002010BD012049
:1018DC0010BDC04610B500F08FFB002801DC0020C5
:1018EC0010BD012010BDC04610B500F085FB0028CE
:1018FC0001DA002010BD012010BDC046F0B54F46E6
:10190C004646D6460D000400C0B51F001100280342
:10191C00620F400A10437A00520DE3003C039146DB
:10192C00640AFA0F4F0F6E0027439246B846760DA5
:10193C00ED0FC900954200D199E04C46341BA446EA
:10194C00002C00DC7CE04A46002A00D1B8E0C54AF5
:10195C00964200D11CE180223C0012041443A046A4
:10196C006246382A00DD61E11F2A00DDCCE16446C5
:10197C002022121B444694400F00A146644691401D
:10198C00E7404C464A1E91413C4342462143644643
:10199C00E240801A5C1AA3429B415F42C71B3B0288
:1019AC0000D4D0E07F027F0A002F00D1FFE0380086
:1019BC00FFF73CFF01000839202322005B1A8F40FF
:1019CC00DA408C401743B14200DAFFE0891B4B1C14
:1019DC001F2B00DDA8E020223900D21A20009440F1
:1019EC009140D840621E9441DF40002601430C43D5
:1019FC00630709D00F232340042B05D0231DA342DA
:101A0C00A44164423F191C003B0200D49EE0954B5C
:101A1C0001369E4200D1B7E0934AE40817407B0799
:101A2C0071057F0223433F0B4A0D12053A43ED0724
:101A3C002A4318001100E0BCBA46B146A846F0BDD6
:101A4C00002C4BD04C46A41BA446002E00D023E106
:101A5C0004001C4300D1AFE16246541E012A00D1A0
:101A6C0015E2804DAC4500D1C8E1A4461BE14A46C5
:101A7C00B21A9446002A00DCACE04A46002A43D055
:101A8C00784A964200D1AFE180223C001204144304
:101A9C00A0466246382A67DC1F2A00DC5FE1474615
:101AAC00203AD7406246202A05D064464022121BB9
:101ABC004446944021434A1E91410C003C4357E05C
:101ACC003A000A4300D105E12200013A012C00D171
:101ADC0082E1644CA4455BD0944641E7634C771C8F
:101AEC00274200D0C4E004001C43002E00D069E162
:101AFC00002C00D1BFE144460C4300D0D0E142079A
:101B0C00DB081343C00829E03A000A4300D170E116
:101B1C0062466446013A012C00D1E0E0514CA445E8
:101B2C0000D161E19446B4E73A001F39CA40110074
:101B3C00202B03D04022D31A9F403C43631E9C4170
:101B4C00002700260C43630700D053E7B446E40893
:101B5C007B072343F808434A94451DD0624607038C
:101B6C0052053F0B520D60E744460C43621E9441F4
:101B7C00E4189C429B415F423F183B02E3D5394B32
:101B8C0001369E4200D0B5E03200002700234CE71E
:101B9C004207DB081343C0081A00024300D1E1E1FD
:101BAC0080273F0307433F032E4A3F0B3DE72000AE
:101BBC00FFF73CFE010018311F2900DCFCE6083859
:101BCC00844027000024B14200DBFFE6264A761A47
:101BDC0017400DE7002A2FD04A46921B9446002E40
:101BEC0000D1ADE01F4A914500D10FE180221204D3
:101BFC0010436246382A00DD0FE11F2A00DD80E128
:101C0C00644620221E00121B674604009340944039
:101C1C00FE405A1E9341F84034431C4380446418E0
:101C2C008C42BF417F424E464744A6E742460A4398
:101C3C0011004A1E9141ADE60C4C721C224200D0A0
:101C4C00A1E002001A43002E00D0FAE0002A00D1D5
:101C5C0045E13A000A4300D046E14207DB08134352
:101C6C00C0087BE7FF070000FFFF7FFFFE070000B7
:101C7C0047465C1AC21BA342BF417F42B9461700BC
:101C8C004A46BF1A3A0200D58DE023003B4300D0F0
:101C9C008AE60020002561E7B44CA14500D1ADE0F7
:101CAC008024240420436446382C3DDC62461F2CDF
:101CBC0000DDB7E020251E002D1B0400AB40AC401E
:101CCC00D640D04042465D1EAB413443121A90467A
:101CDC0023432CE04207DB081343C0083BE75C18A6
:101CEC009C429B4140445B42C71801263B0200D4F6
:101CFC0029E702269E4A63081740012214401C4320
:101D0C00FB071C437F0873E64446203AD4406246E6
:101D1C00202A05D067464022D21B474697403943BC
:101D2C004A1E9141214335E60343581E8341CC1A88
:101D3C00A142BF4143467F4255464E46DF1B2EE62D
:101D4C0002001A4300D1BDE062466446013A012C00
:101D5C0000D1E5E0854CA44558D0944649E764464B
:101D6C002022121B444694400F00A1466446914029
:101D7C00E7404C464A1E91413C4342460C43614667
:101D8C00CA408018F4E6794CA24200D1FDE65918FD
:101D9C0099429B4140445F42C719FC074908160011
:101DAC000C437F08CFE6CC1AA142BF4143467F4289
:101DBC00181A5546C71BF7E5C9087B0755460B4350
:101DCC00F808C8E6002C00D081E043460B4315D13F
:101DDC00802000250003E3E65C1AA3429B41C71B4D
:101DEC005B420126FF1ADAE54207DB081343C00801
:101DFC00D2E64207DB081343C008ACE64346424632
:101E0C00C9085B0755460B43D008C5E64346424616
:101E1C005B07C9080B43D008BEE603431C00631ED6
:101E2C009C41FCE60200203CE24014006246202A61
:101E3C0003D04025AD1AA8400343581E83412343C9
:101E4C0075E7002AE2D03A000A43CDD04207DB08FE
:101E5C0013438022C0081203104206D0FC0814421F
:101E6C0003D12000CB087A0713435A0FDB0052072B
:101E7C00DB08134390E643460B4300D109E7434686
:101E8C004246C9085B0755460B43D00866E6CC1A98
:101E9C00A14289413F1A4942554601267F1A7EE5E7
:101EAC0042465C1A871AA34292415242BF1A3A0226
:101EBC003DD5CC1AA1428941434649421F1A554689
:101ECC007F1A95E57B07C9080B43F80843E644469F
:101EDC00DB080C4330D142071343C0085CE67B0798
:101EEC00C9080B43F80839E65C189C429B414044F6
:101EFC005B42C7183B0200D425E61D4B01261F4050
:101F0C0021E60400203AD4406246202A04D0402224
:101F1C006646921B904003435A1E93411C437EE637
:101F2C005C188C428941404449424718DDE6230045
:101F3C003B4300D1ADE606E6440723438024C008AA
:101F4C002403204208D04246D608264204D15546E6
:101F5C003000CB0851070B435A0FDB00DB0852074C
:101F6C00134319E60023014A1F005EE5FF0700003A
:101F7C00FFFF7FFFF0B54E464546DE46574690467E
:101F8C00E0B517001A03120B0500844619480E031E
:101F9C004C0091465A00DB0F9B46360B640DC90F63
:101FAC00520D844219D0824210D0012094420ED19D
:101FBC004E450CD10120C44509D1594517D0002CF0
:101FCC0005D130002843431E984100E00120F0BCAD
:101FDC00BB46B246A946A046F0BD330001202B43B8
:101FEC00F5D1A242F3D14B463B43F0D1E2E70020BE
:101FFC00EDE7C046FF070000F0B54746CE460400AB
:10200C00180016001B031B0B2D4D4A00994680B57A
:10201C0043000F03A446B0463F0B520DC90F5B0D96
:10202C00C00FAA4221D0AB4213D0002A22D13C438C
:10203C00002B02D14D462E4322D0002C10D08142D1
:10204C0022D00220013908400138C0BCB946B04644
:10205C00F0BD4D462E4329D1002AF0D13C43EED1A0
:10206C000028F2D101204042EFE73D0025431DD16D
:10207C009342EED0002BE2D14C462643DFD1E0E771
:10208C000020002CE1D0DCE79A420ADCE8DB4F456B
:10209C00D7D80ED000204F45D7D20029E2D0080067
:1020AC00D3E74342584140000138CEE7022040427A
:1020BC00CBE7C445C5D80020C445C6D2EDE7C04621
:1020CC00FF070000F0B54746CE4604001800160086
:1020DC001B031B0B2C4D4A00994680B543000F0384
:1020EC00A446B0463F0B520DC90F5B0DC00FAA4260
:1020FC000DD0AB4210D0002A27D13C43002B11D17C
:10210C004D462E430ED10020002C15D00EE03D0084
:10211C00254310D1934218D14D462E430BD1002AA2
:10212C0002D13C43002C0BD0814214D00220013947
:10213C000840013800E00220C0BCB946B046F0BDF2
:10214C000028F9D101204042F6E7002BECD14C4697
:10215C002643E9D1EAE79A4204DD43425841400064
:10216C000138E9E79A42EBDB4F45DFD806D0002077
:10217C004F45E1D20029E5D00800DDE7C445D5D8AC
:10218C000020C445D8D2F5E7FF070000F8B5574644
:10219C004E464546DE46E0B51E0017004A000B03CE
:1021AC00520D5B0A9046420F1A43CD0FCD4C3103B2
:1021BC00C300944670007A0F490AFF009A46B9464C
:1021CC00400DF60F1143A04200D1B1E00122564060
:1021DC00B346B54200D188E04246121A002A00DC10
:1021EC00AEE0002800D1C1E0BE48804500D151E1ED
:1021FC00802000040143382A00DD7BE11F2A00DD2A
:10220C00EEE120203E00801A0C00D640D1408740E1
:10221C0062468440521A781E8741944634432743C1
:10222C00DC1BA3429B4162465B42D31A99464B4648
:10223C001B0200D418E14B465802430A99464B4600
:10224C00002B00D137E14846FFF7F0FA01000839BE
:10225C002023220048465B1ADA4088408C404346D3
:10226C001043884500DD36E1C91A4B1C1F2B00DDDD
:10227C00EAE020222600D21A01009440DE40D84029
:10228C0000239140621E94418146984631430C4391
:10229C00630709D00F232340042B05D0231DA34231
:1022AC00A4416442A1441C004B461B0200D4DEE056
:1022BC0041468C4B0131994200D1E7E04B468A48AC
:1022CC00E4080340180049055B07400223434A0D0C
:1022DC00040B1205ED0722432A4318001100F0BC31
:1022EC00BB46B246A946A046F8BD4246121A002A81
:1022FC0052DD002800D19CE0A04500D1CAE080202E
:10230C0000040143382A00DD49E11F2A00DC97E173
:10231C0010000E002038C640202A04D04020821A1B
:10232C0091400F43B9464C46621E944134433AE106
:10233C000A003A4328D0B346B5422BD06B4A4244EC
:10234C00002A5DD042464446821A002C00D0F5E0AB
:10235C0065461D4300D19CE1551E012A00D1FBE1CD
:10236C00604CA24200D1BDE12A00F0E008003843E5
:10237C0000D1C3E0501E012A00D1A8E1594CA24261
:10238C0000D187E0020036E701225640B346B54241
:10239C0000D021E7554A4244002A00D1B5E042461C
:1023AC004446821A002C00D138E14E4EB04200D186
:1023BC00DEE18026644636043443A446382A00DD28
:1023CC0096E11F2A00DD24E22026B41AA2466446B8
:1023DC005646B440A1461C004E46D4402643340019
:1023EC005646B3405E1EB3411C436346D340C918E6
:1023FC00E419BC42BF417F42B94680468944D8E0CB
:10240C0040463B4C0130204200D0B4E0404600280E
:10241C0000D044E16046184300D190E108003843F5
:10242C0000D0AAE16146DB0849070B436146CC08A2
:10243C0027E00800384361D0501E012A00D139E151
:10244C00A24227D002005DE702001F39CA401100EA
:10245C00202B03D04022D31A98400443631E9C4186
:10246C000023994698460C43630700D012E74B466D
:10247C004A46E4085B072343D408424619498A427A
:10248C000ED024035205240B520D22E70A0000241F
:10249C0000231EE7DB086246520713436246D4084A
:1024AC001A00224300D1FCE18022120314432403BE
:1024BC000C4A240B0DE72000FFF7B8F90100183186
:1024CC001F2900DCC4E60838844043462000002461
:1024DC00884500DCC8E6044A5B1A104098468146E1
:1024EC00D6E6C046FF070000FFFF7FFF01F8FFFFA5
:1024FC00FE0700000F437A1E974191E66146DB0808
:10250C0049070B436146CC08B8E74046D34C013031
:10251C00204200D0A2E04046002800D001E16046F5
:10252C00184300D15EE10800384300D05FE16146FA
:10253C00DB0849070B436146CC08A2E7C84DA8420B
:10254C0000D1CFE0802564462D042C43A446382AC4
:10255C0056DC1F2A00DDD1E020251E00AD1A644692
:10256C00AB40AC40D6405D1EAB4134432343644684
:10257C00D440091B49E06046DC1B461AA34280414B
:10258C004042814630004E46801B8146000276D484
:10259C004B46234300D052E60024002571E7394313
:1025AC000C00621E9441E4189C429B415B426344C4
:1025BC0099464B461B0200D456E701239C46A84B78
:1025CC00E044984538D04B46A648012203401800F9
:1025DC00630814401C43C3071C434308994657E641
:1025EC0010000E002038C640202A04D04020821A49
:1025FC0091400F43B9464F467A1E974137430FE639
:10260C0062461A4313005A1E9341FC1AA742BF415B
:10261C007F42CB1B99465D46804608E666461E43C4
:10262C0000D1BEE0561E012A00D109E18C4CA24219
:10263C0000D119E13200C1E642460024002348E6ED
:10264C0020200C00801A3E0087408440D640781E23
:10265C008741D14034433C438C44A4E7804A9042A8
:10266C0000D1E9E0DF199F429B4161445B42C918EC
:10267C00CC077F084B08994680463C43F4E6FC1A8D
:10268C00A742BF4163467F42C91ACB1B99465D46A0
:10269C00D5E5FF084B075D463B43CC08EEE66246AA
:1026AC001A4300D082E00B003B431BD18024002551
:1026BC002403F9E6DC199C429B41614489465B4248
:1026CC0099444B461B0244D401239846CCE6DC1BB0
:1026DC006246A3429B41511A5B42CB1A9946012395
:1026EC009846A4E5FF084B075D463B43CC08D7E66C
:1026FC0062461A431400631E9C4179E61500644639
:10270C00203DEC40A046202A05D040256446AA1A5C
:10271C00944023439A465446631E9C4143462343AC
:10272C0073E762461A4323D00A003A4300D0A0E074
:10273C006246DB08520713436246D408B0E60B002E
:10274C003B4300D128E7FF084B075D463B43CC08D1
:10275C0097E60223984636E7FC1AA742BF41634628
:10276C007F42C91ACB1B994601235D4698465EE50C
:10277C004B07FF083B43CC0892E6DC1B6046A342A8
:10278C00B641401A7642801B8146000260D5FC1A85
:10279C00A742BF4163467F42C91ACB1B99465D468F
:1027AC0076E5FF084B073B43CC0867E60A00DB08DD
:1027BC003A4300D16FE66246520713436246D4088F
:1027CC0080221203144207D0C808104204D15D467F
:1027DC000400FB0849070B435A0FDB00DB085207C8
:1027EC0013435DE64B07FF083B43CC0849E6DC1975
:1027FC009C429B41614489465B4299444B461B0277
:10280C0000D431E64A46174B1A40012391469846AC
:10281C002AE616006446203EF440A046202A05D045
:10282C0040266446B21A944023439A465446631E8B
:10283C009C4143461C43DBE502000024002348E591
:10284C00DC19BC42BF41614489467F42B94438E738
:10285C004B46234300D19FE606E6C046FE07000028
:10286C00FF070000FFFF7FFFFF084B073B43CC082F
:10287C0016E66246DB08520713436246D4088022F0
:10288C001203144207D0C808104204D15D4604005C
:10289C00FB0849070B435A0FDB005207DB081343B5
:1028AC00FEE50023014A1C0013E5C046FF070000AB
:1028BC0070B505000C481C0316005B000A034900A8
:1028CC00120B490D240B5B0D814208D0064A0020E7
:1028DC00934203D120003043431E984170BD012028
:1028EC002A43FBD1F2E7C046FF0700000A0030B5CF
:1028FC00134C530009030500090B00205B0DD20F8C
:10290C00A34204DD0F48834202DD0F4BD01830BDCB
:10291C008020400301430D48C01A1F2808DD0C48D5
:10292C00C31AD9400B005842002AF0D11800EEE728
:10293C00084CC540A446634499400B002B43F2E776
:10294C00FE0300001D040000FFFFFF7F33040000A6
:10295C0013040000EDFBFFFF70B5002816D0C31761
:10296C00C5185D40C40F2800FEF760FF114A121A0B
:10297C000A2816DC03002E0015339E400B23181A70
:10298C00C54052052D032D0B530D03E000240023ED
:10299C00002500261B052B43E407234330001900B8
:1029AC0070BD0B38854052052D0300262D0B530DA1
:1029BC00F0E7C0461E04000010B5041E10D0FEF750
:1029CC0035FF0F4B1B1A0A2811DC0B222100121A9F
:1029DC00D14015300A035B058440120B5B0D01E0FE
:1029EC00002300221B0513432000190010BD2200F8
:1029FC000B3882405B0512030024120B5B0DF1E7D0
:102A0C001E04000000B587B005AB0A0A1A70597095
:102A1C0002000649029102210191009301235231D7
:102A2C00034801F0ABF807B000BDC046FFFF000043
:102A3C00040A002000B587B002000B4B029302235E
:102A4C00019305AB009301235421084801F066F96A
:102A5C00002806D105AA13781B025078184307B03A
:102A6C0000BD00F0C1F9FAE7FFFF0000040A0020E6
:102A7C0010B500221021244800F054FE80210902D8
:102A8C001C20FFF7BFFF214C21001420FFF7BAFFD9
:102A9C0021001520FFF7B6FF21001620FFF7B2FF2B
:102AAC000D211020FFF7AEFF14211120FFF7AAFF14
:102ABC0014211220FFF7A6FF15490820FFF7A2FFEB
:102ACC00144C21000920FFF79DFF21000A20FFF77D
:102ADC0099FF00211920FFF795FFE224E401210062
:102AEC001E20FFF78FFF21001F20FFF78BFF210017
:102AFC002020FFF787FF08491B20FFF783FF0749BA
:102B0C001A20FFF77FFF10BD0004005002100000D8
:102B1C00AB090000AD0900000DA200002116000059
:102B2C0010B50020FFF786FF0B4C20800120FFF72B
:102B3C0081FF60800220FFF77DFFA0800320FFF75C
:102B4C0079FFE0800420FFF775FF20810520FFF757
:102B5C0071FF608110BDC046D4090020F0B583B070
:102B6C0043001F498000455A280A01AA1070EDB293
:102B7C00557001335B005C5A270A9770E4B2D4702D
:102B8C00FDF7E0FF9721C905FDF7B6FE061C2800EE
:102B9C00FDF7D8FF8F21C905FDF7AEFE011C301CD7
:102BAC00FDF70CFD051C3800FDF7CCFF8721C9058E
:102BBC00FDF7A2FE011C281CFDF700FD051C2000E2
:102BCC00FDF7C0FF011C281CFDF7F8FC0549FDF7BB
:102BDC0093FEC6218905FDF78FFE03B0F0BDC046FC
:102BEC00D40900200000204270B5FFF7B7FFFEF7B4
:102BFC004DFD04000D00094A094BFEF7DBFA0200FB
:102C0C000B0020002900FEF7D5FA02000B00002073
:102C1C000449FDF7D9FFFEF781FD70BD10460F5C2E
:102C2C00F071C94080842E4110B5042814D880005E
:102C3C002E4B1B589F46A024E40501222021200086
:102C4C0000F070FD01224021200000F06BFD0122FC
:102C5C008021200000F066FD10BDA024E4050022B8
:102C6C002021200000F05EFD01224021200000F018
:102C7C0059FD01228021200000F054FDECE7A02436
:102C8C00E40501222021200000F04CFD012240210E
:102C9C00200000F047FD00228021200000F042FDC2
:102CAC00DAE7A024E40501222021200000F03AFDFF
:102CBC0000224021200000F035FD0122802120005F
:102CCC0000F030FDC8E7A024E405002220212000FC
:102CDC0000F028FD00224021200000F023FD0022FE
:102CEC008021200000F01EFDB6E7C04698C4000805
:102CFC00F0B589B01422002103A803F099F9224BF6
:102D0C005A6B01252A435A635A6B2A400192019A45
:102D1C00596B0222114359635B6B1A400292029B5E
:102D2C00A027FF050022E021380000F0FBFC174E25
:102D3C0000221021300000F0F5FCE02303930495F1
:102D4C0000240594069403A9380000F02FFC1023EE
:102D5C00039304950594069403A9300000F026FC17
:102D6C002023039388235B030493059403A9300069
:102D7C0000F01CFC00220021072000F03FFB072084
:102D8C0000F06CFB09B0F0BD0010024000040050D4
:102D9C00034B834200D07047024B01221A70FAE7B2
:102DAC00EC0A0020440B002010B50C4B834200D0E1
:102DBC0010BD0B4B1B78732B03D1094B5B78302B5D
:102DCC0005D002220649054803F03AF8F0E7032043
:102DDC00FFF72AFF034B01221A70E9E7580A00207B
:102DEC00E0090020450B002072B6FEE710B5124832
:102DFC00124B0360124B4360002383600122C260BC
:102E0C00036143618361C361036200F051FE0028DA
:102E1C000CD10021084801F055F8002808D10021F8
:102E2C00054801F07BF8002804D110BDFFF7DCFF4A
:102E3C00FFF7DAFFFFF7D8FF040A00200054004028
:102E4C00BC7D701010B51748174B0360E1235B0273
:102E5C00436000238360C36003610C224261836181
:102E6C00036243628362436602F000FF002811D1C3
:102E7C0000210C4803F066F800280DD10021094808
:102E8C0003F086F8002809D1064803F03BF8002827
:102E9C0006D110BDFFF7A8FFFFF7A6FFFFF7A4FFB1
:102EAC00FFF7A2FF580A00200080004000B589B04F
:102EBC001022002104A803F0BBF80C22002101A869
:102ECC0003F0B6F814488023DB050360134B436012
:102EDC00002383606322C2600361836101F092FE70
:102EEC00002813D180235B01049304A90A4801F044
:102EFC00C5FE00280CD100230193039301A90648B9
:102F0C0001F040FF002805D109B000BDFFF76CFFB0
:102F1C00FFF76AFFFFF768FFEC0A0020FF180000BC
:102F2C0000B593B03822002104A803F081F81022D8
:102F3C000021684603F07CF88020800001F018F82E
:102F4C00022304938022520007920022089240210F
:102F5C0009910B930C930D9206330E9380239B02D5
:102F6C000F9380239B04109380239B05119304A83B
:102F7C0001F028F800280ED107230093053B01939C
:102F8C000023029303930221684601F0D3FA002830
:102F9C0003D113B000BDFFF727FFFFF725FF00009B
:102FAC00F0B5C64600B584B000F002FAFFF7B8FFE2
:102FBC00FFF79EFEFFF71AFFFFF744FFFFF776FFC0
:102FCC000220FFF731FE264801F0BEFCFFF750FD52
:102FDC0002222449244802F033FF0320FFF724FE89
:102FEC00224B1B78012BF8D11D4D280001F0E4FC7D
:102FFC001E4B00221A70FFF793FD0020FFF7F4FD23
:10300C001B4C20600120FFF7EFFD1A4F38600220A7
:10301C00FFF7EAFD184B98461860280001F094FC65
:10302C002068FEF733FB04000D00144E434618686D
:10303C00FEF72CFB029003913868FEF727FB0090FB
:10304C00019122002B000E49300003F045F8FA23C1
:10305C009B001C223100044802F056FDBDE7C0461F
:10306C00EC0A0020E0090020580A0020440B002044
:10307C00380B00203C0B0020400B0020E409002002
:10308C00ACC4000882B00A4B196C012211431964BC
:10309C00196C0A400092009ADA6B802149050A43A8
:1030AC00DA63DB6B0B400193019B02B07047C046A7
:1030BC000010024010B592B00400142200210DA89B
:1030CC0002F0B6FF2822002103A802F0B1FF22680B
:1030DC00174B9A4201D012B010BD2023039303A8C2
:1030EC0001F008FB00281FD1124C626B02231A431B
:1030FC006263626B13400193019BC0230D93AE3B43
:10310C000E9300230F931093063311930DA90A48C5
:10311C0000F04CFAE26B802189030A43E263E36B13
:10312C000B400293029BD6E7FFF75EFEDCE7C0463E
:10313C0000540040001002400004005010B592B042
:10314C000400142200210DA802F072FF2822002195
:10315C0003A802F06DFF22681B4B9A4201D012B0FB
:10316C0010BD1023039303A801F0C4FA002828D142
:10317C00164BD96B802040030143D963DA6B0240B4
:10318C000192019A596B0122114359635B6B1A40EE
:10319C000292029B0C230D930A3B0E9300230F9378
:1031AC00109306331193A0200DA9C00500F0FEF971
:1031BC00002200211D2000F021F91D2000F04EF905
:1031CC00CDE7FFF711FED3E700800040001002406E
:1031DC0000B583B002688023DB059A4201D003B0AE
:1031EC0000BD094AD16B01231943D163D26B134043
:1031FC000193019B002200210F2000F0FFF80F200B
:10320C0000F02CF9EBE7C04600100240FEE7FEE7A9
:10321C007047704710B500F0DFF810BD10B52020D6
:10322C0000F088FA10BD000010B5024801F0E4FB74
:10323C0010BDC046EC0A002010B5024801F036FE65
:10324C0010BDC046580A00200120704710B502F08E
:10325C00C7FE162303600120404210BD10B50121AA
:10326C004942FFF7F3FFFEE770B50C00160000258E
:10327C0004E000E000BF207001350134B542F8DBFA
:10328C00300070BD70B51600002405E04D1C0878A8
:10329C0000E000BF01342900B442F7DB300070BD00
:1032AC0001204042704780239B014B6000207047F7
:1032BC00012070470020704710B503000C4A0D49DF
:1032CC00521A0D490968002907D00B490868C31820
:1032DC00934206D8084A136010BD07490748086096
:1032EC00F3E702F07DFE0C23036001204042F3E77C
:1032FC000020002000040000480B0020980B002048
:10330C00704700000D488546FFF7FAFF0C480D4941
:10331C000D4A002302E0D458C4500433C4188C4224
:10332C00F9D30A4A0A4C002301E013600432A2428A
:10333C00FBD302F05BFEFFF733FEFEE7002000201C
:10334C0000000020B809002038CC0008B809002083
:10335C00980B0020FEE7000010B50400114B197803
:10336C00002901D1012010BDFA208000FCF7C4FE19
:10337C0001000D4B1868FCF7BFFE00F07BF800282D
:10338C000DD1032C01D90120EDE7013000222100E1
:10339C00404200F033F8054B1C600020E3E70120AD
:1033AC00E1E7C046040000200000002008000020D7
:1033BC0010B5084A116880235B000B43136003208F
:1033CC00FFF7CAFF041E02D00124200010BDFFF736
:1033DC0059FEFAE700200240034B1B78034A1168A0
:1033EC005B1813607047C046040000204C0B002093
:1033FC00014B18687047C0464C0B002070B5002874
:10340C0011DB8308134EC0339B009D5903242040CD
:10341C00C000FF2214008440A54389010A40824069
:10342C002A439A5170BD0F230340083B9B08063377
:10343C009B00094A944663445C6803221040C00018
:10344C00FC3215008540AC4389010A40824022437E
:10345C005A60E7E700E100E000ED00E0002805DB42
:10346C001F2318401E3B8340014A13607047C0461F
:10347C0000E100E0013880235B0498420FD2094A36
:10348C0050600948036A1B021B0AC02109060B4342
:10349C000362002393600733136000207047012000
:1034AC00FCE7C04610E000E000ED00E030B500287D
:1034BC0036D02523C35C022B06D00423C3632033F0
:1034CC000022C254012030BD026813680E218B43C8
:1034DC001360426C136813490B40136001680A684F
:1034EC0001239A430A60104C62681C21056C294028
:1034FC008B4013436360836CC26C5A60036D002B6A
:10350C0006D01A6807490A401A60436D826D5A60EA
:10351C0025230122C254013B0022C2540020D2E7D1
:10352C000120D0E7FFFEFFFF0000024070B525230D
:10353C00C35C022B03D00423C363012070BD02685B
:10354C0013680E218B43136001680A6801239A43A8
:10355C000A60416C0A68134C22400A60124C626883
:10356C001C21056C29408B4013436360836CC26C37
:10357C005A60036D002B06D01A680A490A401A607B
:10358C00436D826D5A6025230122C254013B0022F7
:10359C00C254836B002B02D098470020CEE700204A
:1035AC00CCE7C046FFFEFFFF00000240F0B5002351
:1035BC005AE084685F000326BE40B4432600CC6802
:1035CC00BC4034438460446894434A681609012221
:1035DC0032409A402243426056E0DC080834A40092
:1035EC00265805321A4092000F279740BE430F69A8
:1035FC0097403A00324322505AE0032600E000265E
:10360C00A64034003C43434E183292009451346827
:10361C00EA432600AE434F68FF0201D52C43260037
:10362C003C4C26606468260016404F68BF0201D5EA
:10363C002C432600374C66608426A459260016407D
:10364C004F68BF0301D52C432600324C8427E6512A
:10365C008026A45922404E68F60301D52A00224345
:10366C002C4D80242A5101330C682200DA404FD0B3
:10367C0001229A40250015401442F4D003244E68D0
:10368C003440013C012C94D903224C682240032A7B
:10369C0009D0C2685E000324B440A24314008A68B7
:1036AC00B2402243C26003224C682240022A94D0CA
:1036BC0004685E0003221700B740BC434F683A40D1
:1036CC00B24022430260C02292024C681442CAD01B
:1036DC009A0814001834A4000E4EA75903241C4059
:1036EC00E4000F26A640B743A026F605B04286D0CC
:1036FC00094EB04208D0094EB04207D0084EB04235
:10370C0000D17AE705267BE7012679E7022677E7E1
:10371C00F0BDC046001802400004005000080050E4
:10372C00000C0050002A01D0816170478162FCE7D7
:10373C007047704710B50400094BDB68184204D180
:10374C00074B1B69234205D110BD054BD860FFF711
:10375C00EFFFF5E7024B1C612000FFF7EAFFF3E7F0
:10376C000018024003689A69920701D500229A62F8
:10377C0003689A69D20703D49A6901210A439A61B2
:10378C007047000010B58905890D120411431943C7
:10379C00029B194349004908046862685B0D80204C
:1037AC00C0000340024803439A431143616010BDBB
:1037BC00FF63FF03F0B5C64600B504000D0017000B
:1037CC0001688B69102216001E401A4200D175E068
:1037DC001023CB6100239846002623689869820643
:1037EC0031D4002E2FD16B1CF7D0FFF701FEC01B7C
:1037FC00A84201D8002DF0D121684B688022D2015B
:10380C0013404222A25CD2B28869000403D5002B7B
:10381C0001D1202A0ED123689B699B06DDD4FFF7CA
:10382C00E7FDC01B1928F6D9202342461A439046BF
:10383C000126D2E74A688023DB0113434B60FFF774
:10384C00D7FD0700E7E7002E01D12022DA6104261C
:10385C00434633431E00012522689369D90504D5DC
:10386C0001210E43FF31D16101255A0506D50822ED
:10387C00164322688021C900D16101259B051FD503
:10388C0002231E43236880229200DA610125200066
:10389C00FFF768FF226853680B490B405360636C59
:1038AC001E43666441232022E25400232232A35497
:1038BC00023AA354280080BCB846F0BD0025CBE7E3
:1038CC00002DF7D0E3E7C04600E800FE70B5040019
:1038DC000D00160023689B699B071CD4320029003D
:1038EC002000FFF767FF002817D16B1CF2D0FFF701
:1038FC007FFD801BA84201D8002DEBD1636C2022E8
:10390C00134363644123E25400232232A354023A4A
:10391C00A354012000E0002070BD0120FCE7F0B5AD
:10392C00C64600B507000D0090461E003B689C691A
:10393C002C40641B63425C41444516D1731CF5D08A
:10394C00FFF756FD069BC01AB04201D8002EEDD1F0
:10395C007B6C202213437B644123FA5400232232D4
:10396C00BB54023ABB54012000E0002080BCB84696
:10397C00F0BD000070B582B0040015001E0080235D
:10398C00F2B2194800905B042000FFF7FBFE079A87
:10399C0006992000FFF79AFF00281ED1012E0ED1A8
:1039AC002368EDB29D62079B0093069B0022802149
:1039BC002000FFF7B4FF002813D102B070BD2368BC
:1039CC002A0A9A62079A06992000FFF77FFF0028BF
:1039DC0005D12368EDB29D62E5E70120EDE70120FA
:1039EC00EBE70120E9E7C0460020008070B582B00B
:1039FC00040015001E00DAB2184B00930023FFF7E9
:103A0C00C1FE079A06992000FFF760FF00281ED11F
:103A1C00012E0ED12368EDB29D62079B0093069B8D
:103A2C00002240212000FFF77AFF002813D102B0BA
:103A3C0070BD23682A0A9A62079A06992000FFF73C
:103A4C0045FF002805D12368EDB29D62E5E7012012
:103A5C00EDE70120EBE70120E9E7C04600200080FC
:103A6C0070B505000C0016002B689B699B061AD4D8
:103A7C00320021002800FFF79DFE002815D1FFF72A
:103A8C00B7FC801BA04201D8002CEDD16B6C20221E
:103A9C0013436B644123EA5400232232AB54023AA1
:103AAC00AB54012070BD0020FCE70120FAE70000B8
:103ABC0010B5041E59D04123C35C002B43D04123C5
:103ACC002422E2542268136801218B43136022687C
:103ADC00274B61680B4013612268936825490B40A2
:103AEC009360E368012B34D0226884231B02A16805
:103AFC000B439360E368022B32D0226851681E4B53
:103B0C000B4353602268D3681A490B40D360236976
:103B1C0062691343A269120221681343CB602268C5
:103B2C00E369216A0B4313602268136801210B437C
:103B3C0013600023636441221F31A15423630132BB
:103B4C00A354002010BD40330022C254FFF7B2FA38
:103B5C00B5E7226880231B02A1680B439360C9E779
:103B6C002368802212015A60C7E70120EAE7C046A9
:103B7C00FFFFFFF0FF7FFFFF00800002F0B587B072
:103B8C0004000391049205930CAB20CB1F884123B6
:103B9C00C35C202B00D0B3E0002D18D0002F16D022
:103BAC004023C35C012B00D1ADE040230122C25461
:103BBC00FFF71EFC06008021009019230122090248
:103BCC002000FFF7ACFE002806D0012099E08023EE
:103BDC009B006364012094E041232122E2540133D1
:103BEC001F32E25400236364656267856363019648
:103BFC000E9B0093059B049A03992000FFF7BAFED5
:103C0C0000280FD1638D9BB2FF2B10D9FF23238586
:103C1C007F3B002200925B04FF3203992000FFF7E8
:103C2C00B1FD21E040230022E254012069E0628DC5
:103C3C0092B222858023D2B2002100919B04039979
:103C4C002000FFF79FFD0FE0628D92B2228580234A
:103C5C00D2B2002100919B0403992000FFF792FD42
:103C6C00638D9BB2002B34D032000E992000FFF7ED
:103C7C002DFE002849D12368626A12789A62636A21
:103C8C0001336362638D013B9BB26385238D013BE2
:103C9C009BB22385628D92B2002AE1D0002BDFD13A
:103CAC0000960E9B002280212000FFF738FE002892
:103CBC002DD1638D9BB2FF2BC6D9FF2323857F3B70
:103CCC00002200925B04FF3203992000FFF75AFD9B
:103CDC00C6E732000E992000FFF7C2FE002818D16B
:103CEC0023682022DA6121684B680B4D2B404B6016
:103CFC004123E25400232232A354023AA35400E09D
:103D0C00022007B0F0BD0220FBE70120F9E70120FB
:103D1C00F7E70120F5E7C04600E800FEF0B587B0F4
:103D2C0004000391049205930CAB20CB1F88412314
:103D3C00C35C202B00D0B5E0002D18D0002F16D07E
:103D4C004023C35C012B00D1AFE040230122C254BD
:103D5C00FFF74EFB06008021009019230122090277
:103D6C002000FFF7DCFD002806D001209BE080231B
:103D7C009B006364012096E041232222E25401332C
:103D8C001E32E254002363646562678563630196A7
:103D9C000E9B0093059B049A03992000FFF726FEC7
:103DAC0000280FD1638D9BB2FF2B10D9FF232385E5
:103DBC007F3B424A00925B04FF2203992000FFF7ED
:103DCC00E1FC21E040230022E25401206BE0628DF3
:103DDC0092B222858023D2B2384900919B04039978
:103DEC002000FFF7CFFC0FE0628D92B2228580237A
:103DFC00D2B2002100919B0403992000FFF7C2FC72
:103E0C00638D9BB2002B36D000960E9B00220421B2
:103E1C002000FFF784FD002849D123685B6A626AA1
:103E2C001370636A01336362238D013B9BB223855C
:103E3C00628D013A92B26285628D92B2002ADFD015
:103E4C00002BDDD100960E9B002280212000FFF775
:103E5C0066FD00282DD1638D9BB2FF2BC4D9FF23A7
:103E6C0023857F3B002200925B04FF3203992000E4
:103E7C00FFF788FCC4E732000E992000FFF7F0FD35
:103E8C00002818D123682022DA6121684B680C4D78
:103E9C002B404B604123E25400232232A354023ABC
:103EAC00A35400E0022007B0F0BD0220FBE7012084
:103EBC00F9E70120F7E70120F5E7C0460024008070
:103ECC0000E800FEF0B54123C35C202B20D1203349
:103EDC00C35C012B1ED04024012202554125242312
:103EEC0043550668336893433360066833680A4F5A
:103EFC003B403360066833681943316001680B68D6
:103F0C0013430B6020234355002303550020F0BDC1
:103F1C000220FCE70220FAE7FFEFFFFFF0B5412398
:103F2C00C35C202B1ED12033C35C012B1CD040243E
:103F3C0001220255412524234355066833689343D7
:103F4C00336006683368094F3B40090219433160FE
:103F5C0001680B6813430B60202343550023035562
:103F6C000020F0BD0220FCE70220FAE7FFF0FFFF83
:103F7C0010B5104A136810490B400343136080239B
:103F8C009B00984201D0002010BD0C4B1B685800C0
:103F9C00C01840000A49FCF7AFF80130054B5B69CB
:103FAC005B0503D5002803D00138F7E70020EBE7C9
:103FBC000320E9E700700040FFF9FFFF000000203C
:103FCC0040420F0070B582B0041E00D131E203688C
:103FDC00DB0739D5C14A916838230B40D1680322DD
:103FEC000A40102B26D0082B26D063688022520260
:103FFC0093427FD0A022D202934200D181E0B74BF2
:10400C001A68B7490A401A601A68B6490A401A6019
:10401C006368002B00D180E0FFF7EAF90500AF4B95
:10402C001B689B0310D4FFF7E3F9401B6428F6D9F7
:10403C000320FFE1032AD6D1A84B1B689B0303D5B1
:10404C006368002B00D1F7E123689B0731D5A34AA5
:10405C00936838210B40D16803220A40102B6AD098
:10406C00002B6BD19D4A1268520503D5E268002AD9
:10407C0000D1E3E1994842689B490A406169090211
:10408C000A434260002B0DD1036898490B4021690B
:10409C000B4303600368DB0A07221A40944BD3409E
:1040AC00944A1360944B1868FFF756F9002800D017
:1040BC00C6E123681B0700D481E0884B9A6838233B
:1040CC001340182B73D0A369002B00D1B4E0834AA2
:1040DC00136E01210B431366FFF78AF905007F4B22
:1040EC001B6E9B076BD4FFF783F9401B0228F6D994
:1040FC0003209FE1794A116880235B020B43136014
:10410C0086E7764B19688022D2020A431A60196836
:10411C00802252020A431A607AE7FFF769F9050018
:10412C006E4B1B689B038FD5FFF762F9401B64280D
:10413C00F6D903207EE1022A92D193E7E368002BA3
:10414C0022D0664A136869490B4021690B431360FE
:10415C00116880235B000B431360FFF749F90500DE
:10416C005E4B1B685B0506D4FFF742F9401B022827
:10417C00F6D903205EE159494B685B4A13406269EA
:10418C00120213434B6094E7544A13685B490B408B
:10419C001360FFF72DF90500504B1B685B0588D5A4
:1041AC00FFF726F9401B0228F6D9032042E14B4BBE
:1041BC001B6E9B0703D5A369002B00D142E123683A
:1041CC005B0700D4A2E0454B9A6838231340202BA0
:1041DC0045D0424BDB6BDB004AD4404AD16B80208C
:1041EC0040050143D163D36B03400193019B01252F
:1041FC00434B1B68DB053DD5A368012B4ED0052B2B
:10420C0052D0364BDA6D01218A43DA65DA6D03310F
:10421C008A43DA65A368002B50D0FFF7E9F8060053
:10422C002E4BDB6D9B076FD4FFF7E2F8801B354BF1
:10423C009842F5D90320FDE0284A136E01218B43E7
:10424C001366FFF7D5F80500244B1B6E9B07B6D5FC
:10425C00FFF7CEF8401B0228F6D90320EAE01F4BEB
:10426C00DB6D9B0752D5A368002B4FD10120E1E0F9
:10427C000025BDE7224A116880235B000B431360C5
:10428C00FFF7B6F806001E4B1B68DB05B4D4FFF72E
:10429C00AFF8801B0228F6D90320CBE00F4AD36D70
:1042AC0001210B43D365B5E70C4BDA6D04210A43AE
:1042BC00DA65DA6D03390A43DA65ABE7FFF798F88C
:1042CC000600064BDB6D9B071ED5FFF791F8801B94
:1042DC000C4B9842F5D90320ACE0C04600100240CC
:1042EC00FFFFFEFFFFFFFBFFFF80FFFFFFC7FFFF8E
:1042FC000024F4000000002008000020FFFEFFFF57
:10430C000070004088130000012D1ED0E369002BC3
:10431C0000D199E0544A916838220A40102A60D0A2
:10432C00022B18D0504A136850490B401360FFF70A
:10433C005FF804004C4B1B689B014BD5FFF758F8FA
:10434C00001B0228F6D9032074E0474AD36B484976
:10435C000B40D363DAE7444A136844490B401360BB
:10436C00FFF746F80500404B1B689B0106D5FFF78D
:10437C003FF8401B0228F6D903205BE03A4AD36889
:10438C003C491940236A606A0343A06A0002034354
:10439C00E06A0343206B0343606B03430B43D3601E
:1043AC00116880235B040B431360D16880235B0589
:1043BC000B43D360FFF71CF804002B4B1B689B01CD
:1043CC0006D4FFF715F8001B0228F6D9032031E0BC
:1043DC0000202FE0244AD36827490B40D3600020EB
:1043EC0028E0012B32D0204BDA6803231340216ADA
:1043FC008B422DD170231340616A8B422AD1FE214E
:10440C00C9011140A36A1B02994225D1F8239B03D1
:10441C001340E16A8B4221D1E0231B051340216B31
:10442C008B421DD1520F5207636B9A421AD1002056
:10443C0000E0012002B070BD0120FBE70120F9E78C
:10444C000120F7E70120F5E70020F3E70120F1E771
:10445C000120EFE70120EDE70120EBE70120E9E780
:10446C000120E7E70120E5E700100240FFFFFFFE17
:10447C00FFFFFFEF8C80C111FCFFFEEE10B52A4B45
:10448C009B6838221A4207D1274B1A68D20A072395
:10449C0013402648D84010BD234B9A68382313404C
:1044AC00082B3BD0204B9A6838231340102B0DD08F
:1044BC001D4B9A6838231340202B31D01A4B9A6825
:1044CC0038231340182B26D00020E4E7164AD16875
:1044DC000D3B0B40D2681209072111400131032B0F
:1044EC000FD01248FBF708FE0F4BDA68120A7F2335
:1044FC00134058430C4BD968490F0131FBF7FCFDB5
:10450C00C9E70B48FBF7F8FD074BDA68120A7F2363
:10451C0013405843EEE7FA20C001BCE70448BAE761
:10452C0080200002B7E7C046001002400024F400CF
:10453C0000127A0070B504000D00002800D1AAE02A
:10454C00574B1A68072313408B4221D323689A07D1
:10455C000ED55B0705D5534A9168E023DB010B436D
:10456C009360504A936850490B40A1680B43936089
:10457C002368DB0754D56368012B20D0022B3BD07A
:10458C00002B3FD1474A126852051CD401206AE027
:10459C00434A136807218B432B431360FEF728FF14
:1045AC0006003F4B1A6807231340AB42CED0FEF7F0
:1045BC001FFF801B3D4A9042F3D9032053E0394A38
:1045CC001268920369D537498A68072082431343DE
:1045DC008B60FEF70DFF0600324B9B6838221A40A9
:1045EC006368DB009A421BD0FEF702FF801B2F4B47
:1045FC009842F1D9032036E02A4A12689201E2D49B
:10460C00012030E0032B05D0264AD26D9207DAD474
:10461C00012028E0234A126E9207D4D4012022E014
:10462C001F4B1A6807231340AB421DD823685B0746
:10463C0006D51C4A93681E490B40E1680B439360F6
:10464C00FFF71CFF174B9A68120A0F2313409B00AD
:10465C00184A9A581F231340D840174B1860174B11
:10466C001868FEF779FE70BD0D4A136807218B435D
:10467C002B431360FEF7BCFE0600094B1A68072398
:10468C001340AB42D2D0FEF7B3FE801B074B9842CF
:10469C00F3D90320E7E70120E5E70120E3E7C04673
:1046AC000020024000100240FFF0FFFF88130000C2
:1046BC00FF8FFFFFC4C4000800000020080000208A
:1046CC00014B18687047C0460000002010B5FFF77A
:1046DC00F7FF064B9A68120B072313409B00044A02
:1046EC009A581F231340D84010BDC04600100240FA
:1046FC0004C50008F0B583B0040003689B0362D5C1
:10470C006D4BDB6BDB001ED46B4AD16B80204005FC
:10471C000143D163D36B03400193019B0126674A8C
:10472C00116880235B000B431360FEF761FE0500EC
:10473C00624B1B68DB0508D4FEF75AFE401B0228AF
:10474C00F6D9032502E00026E9E70025002D23D148
:10475C00594BD96DC02292000B001340114210D05E
:10476C00626A9A420DD0544AD36D55490B40D06DB4
:10477C00802149020143D165D16D52480140D16578
:10478C00D365DB0710D4002D06D14B4AD36D4C49B1
:10479C000B40616A0B43D365012E15D1464AD36B8E
:1047AC0049490B40D3630FE0FEF722FE0700424B52
:1047BC00DB6D9B07E7D4FEF71BFEC01B434B9842F7
:1047CC00F5D90325DFE700252368DB0706D53A4A30
:1047DC00536D03218B4361680B4353652368DB06E0
:1047EC0006D5354A536D3A490B40A1680B435365C6
:1047FC0023689B0506D5304A536D36490B406169D9
:10480C000B43536523685B0506D52B4A536D324920
:10481C000B40A1690B43536523689B0606D5264ABA
:10482C00536D2E490B40E1680B43536523685B04C1
:10483C000BD5214A536D9B009B08E1690B435365D3
:10484C008023DB05E2699A4220D023689B020BD5BA
:10485C00194A536D22490B40216A0B43536580233F
:10486C00DB03226A9A4218D023681B050BD5124A27
:10487C00536D1C490B4021690B43536522698023FE
:10488C00DB019A4210D0280003B0F0BD0A4AD1686F
:10489C0080235B020B43D360D7E7074AD1688023A0
:1048AC005B040B43D360DFE7034AD16880235B02D0
:1048BC000B43D360E7E7C046001002400070004095
:1048CC00FFFCFFFFFFFFFEFFFFFFFFEF8813000061
:1048DC00FFF3FFFFFFFFF3FFFFFFCFFFFFCFFFFF54
:1048EC00FFFFBFFFFF3FFFFF30B5036A046A0125DE
:1048FC00AC4304628469EF35AC43120122430A24B1
:10490C00A3430B438261036230BD000030B5036AE0
:10491C001024A34303628469036A054D2C401203DF
:10492C002243A024A343090119438261016230BDD3
:10493C00FF0FFFFF8368034A13400B4307210B4310
:10494C00836070478FFFCFFF3D23C35C012B26D1C3
:10495C003C330222C2540268D36801210B43D3605A
:10496C000368124A93420CD08022D205934208D09D
:10497C000F4A934205D01A6801210A431A6000209D
:10498C000EE09A680B490A40062A0AD007398A4277
:10499C0009D01A6801210A431A60002000E00120A6
:1049AC0070470020FCE70020FAE7C046002C0140CD
:1049BC0000040040070001000268D36801218B430A
:1049CC00D3600368196A084A114207D1196A074A69
:1049DC00114203D11A6801218A431A603D23012236
:1049EC00C25400207047C04611110000440400005E
:1049FC00704770477047704710B5040003681A6918
:104A0C0092070FD5DA6892070CD5032252421A612D
:104A1C000123037703689B699B076AD0FFF7E9FFC3
:104A2C000023237723681A69520712D5DA685207D4
:104A3C000FD5052252421A610223237723689A6903
:104A4C00C0239B001A425AD02000FFF7D2FF00234C
:104A5C00237723681A69120710D5DA6812070DD567
:104A6C00092252421A61042323772368DB699B07CE
:104A7C004CD02000FFF7BDFF0023237723681A6971
:104A8C00D20612D5DA68D2060FD5112252421A611B
:104A9C00082323772368DA69C0239B001A423CD091
:104AAC002000FFF7A6FF0023237723681A69D2079B
:104ABC0002D5DA68D20737D423681A69120602D5F0
:104ACC00DA68120637D423681A69D20502D5DA6877
:104ADC00120637D423681A69520602D5DA685206D0
:104AEC0036D423681A69920602D5DA68920636D44F
:104AFC0010BDFFF77DFF2000FFF77CFF90E7200043
:104B0C00FFF776FF2000FFF775FFA0E72000FFF707
:104B1C006FFF2000FFF76EFFAEE72000FFF768FF86
:104B2C002000FFF767FFBEE7022252421A61200005
:104B3C00FEF72EF9C0E7812252421A61200000F0E4
:104B4C005EF9C0E7094A1A61200000F059F9C1E783
:104B5C00412252421A612000FFF74DFFC1E721228A
:104B6C0052421A61200000F049F9C1E7FFFEFFFF35
:104B7C0003681E4A904206D08022D205904202D091
:104B8C001B4A904203D1702293434A681343174A3D
:104B9C0090420FD08022D20590420BD0144A904202
:104BAC0008D0144A904205D0134A904202D0134ABE
:104BBC00904203D1124A1340CA6813438022934394
:104BCC004A69134303608B68C3620B688362074BAB
:104BDC00984205D0084B984202D0084B984201D11C
:104BEC000B690363012343617047C046002C0140ED
:104BFC0000040040002000400044014000480140F7
:104C0C00FFFCFFFF70B5041E2AD03D23C35C002BB4
:104C1C0020D03D2502236355210001C9FFF7A8FFD1
:104C2C0001234822A3540A3AA3540132A35401325B
:104C3C00A3540132A3540132A3540132A3540132C0
:104C4C00A3540132A3540132A3540132A35463552B
:104C5C00002070BD3C330022C254FEF7B9FAD8E7ED
:104C6C000120F6E730B58468034D2C401B0213433A
:104C7C000B432343836030BDFF00FFFF10B50400DE
:104C8C003C23C35C012B00D178E03C230122C254AD
:104C9C0001330132C254026893683948034093606F
:104CAC000B68602B50D02AD8402B58D00CD9502BE5
:104CBC0023D1CA6849682068FFF716FE5021206886
:104CCC00FFF738FE002005E0202B0ED009D9302B41
:104CDC000BD001203D230122E254013B0022E2547F
:104CEC0010BD002B01D0102B05D119002068FFF747
:104CFC0021FE0020EEE70120ECE70120EAE780220C
:104D0C005201934236D08022920193420DD1CB684E
:104D1C004A6889682068FFF7A5FF2268916880239C
:104D2C00DB010B4393600020D4E7702B24D1CB68BC
:104D3C004A6889682068FFF795FF22689368772195
:104D4C000B4393600020C5E7CA6849682068FFF7E9
:104D5C00DDFD60212068FFF7EDFD0020BAE7CA6891
:104D6C0049682068FFF7C0FD40212068FFF7E2FD8D
:104D7C000020AFE70020ADE70120ABE70220AFE752
:104D8C008800CEFF30B53C23C35C012B2DD03C23D7
:104D9C000122C25401330132C25402685368946830
:104DAC00134DAA421CD07025AB430D682B435360A6
:104DBC0003680F4A934206D08022D205934202D058
:104DCC000C4A934204D1802294438A6814439C6019
:104DDC003D230122C254013B0022C254002030BDAD
:104DEC00054D2B404D682B43DDE70220F7E7C0460D
:104DFC00002C014000040040FFFF0FFF704770477C
:104E0C007047000030B5EFF31084012282F3108854
:104E1C0001680B68124D2B400B6084F31088EFF384
:104E2C00108182F31088026893680E4C23409360C3
:104E3C0081F31088C36E012B06D08C232022C25024
:104E4C000023C366436730BDEFF3108183F31088F2
:104E5C00026813681024A343136081F31088ECE7F5
:104E6C00DFFEFFFFFEFFFFEF704710B5EFF3108181
:104E7C00012383F31088026813684024A343136052
:104E8C0081F3108888232022C25000238367FFF708
:104E9C00EBFF10BD704710B5806A00235E22835271
:104EAC00083A8352FFF7F6FF10BD7047F8B50400BF
:104EBC000268D36910689568BD491E000E400B420C
:104ECC0005D1990603D581062CD4E9002AD4002EED
:104EDC0007D0B8492E000E400D4229D1B6490842E0
:104EEC0026D1E16E012900D1AAE0D90202D56902CE
:104EFC0000D543E11A0605D5020600D545E12A0284
:104F0C0000D542E15A0602D5420600D544E11A0208
:104F1C0002D5420000D543E1DB0102D5002800DABE
:104F2C0042E1F8BD636F002BFBD020009847F8E7F7
:104F3C00D90707D5C10505D50127176290216258FD
:104F4C003A4362509A0709D5EA0707D5226802212D
:104F5C0011628E31625804273A4362505A0709D5C0
:104F6C00EA0707D52268042111628C3162580227A6
:104F7C003A4362501A070AD5820601D4002E06D095
:104F8C0022680826166290216258324362501A0534
:104F9C000AD5420108D522688021090111629021AD
:104FAC0062582026324362509022A258002AB8D070
:104FBC009B0608D5830601D4EB0004D5636F002B48
:104FCC0001D0200098479023E25823689B685B0629
:104FDC0002D4282313422CD02000FFF713FF2368A0
:104FEC009B685B0621D5EFF31081012383F31088B6
:104FFC002268936840208343936081F31088802358
:10500C00E358002B0DD06D4A9A638023E058FEF7CD
:10501C008DFA002800D184E78023E058836B9847F1
:10502C007FE72000FFF736FF7BE72000FFF732FF1A
:10503C0077E72000FFF72EFF90230022E25070E765
:10504C00D90600D451E7C10600D44EE710231362F1
:10505C0023689B685B0655D58023E25813685B6810
:10506C009BB2002B00D15CE75C21615A994200D8BD
:10507C0057E75E21635213681B689B060BD502230E
:10508C0023675A33E15A0233E35AC91A89B2200012
:10509C00FFF70BFF45E7EFF31080012383F3108834
:1050AC0021680A68464D2A400A6080F31088EFF3A5
:1050BC00108083F3108821688A689A438A6080F391
:1050CC001088EFF3108083F3108821688A684235CA
:1050DC00FF35AA438A6080F310888C222021A150CE
:1050EC000022E266EFF3108183F3108822681368C4
:1050FC0010208343136081F310888023E058FEF75F
:10510C00D5F9BCE75C23E15A0233E25A891A89B219
:10511C00E35A9BB2002B00D103E7002900D100E732
:10512C00EFF31085012383F3108820680268254E65
:10513C003240026085F31088EFF3108583F31088FA
:10514C0020688268204E3240826085F310888C2261
:10515C002020A0500022E2666267EFF3108083F3F8
:10516C001088226813681025AB43136080F31088F5
:10517C00022323672000FFF798FED2E680235B030F
:10518C001362200000F0BAFECBE6A36F002B00D117
:10519C00C7E620009847C4E62000FFF766FEC0E68D
:1051AC00200000F0ADFEBCE6200000F0A8FEB8E642
:1051BC000F0800000100001020010004A34E00089D
:1051CC00FFFEFFFFDFFEFFFFFEFFFFEF10B56023CA
:1051DC00C35A8C228258222A05D00268936908216E
:1051EC000B43936110BD0268526ADBB21340826DAF
:1051FC001370836D013383655E22835A013B9BB22E
:10520C008352835A9BB2002BECD1EFF3108C5D3A96
:10521C0082F3108801680B68194C23400B608CF3E7
:10522C001088EFF3108C82F3108801688B6893431D
:10523C008B608CF310888C231F32C2500023436781
:10524C000367C36E012B17D10023C366EFF31084E1
:10525C00013383F3108801680B68103A93430B6099
:10526C0084F310880368D9690A4200D01A625C235F
:10527C00C15AFFF71AFEB5E7FDF796FDB2E7C04637
:10528C00DFFEFFFF10B56023C25A2C33C358222B0C
:10529C0005D00268936908210B43936110BD036824
:1052AC005B6A1340826D1380836D023383655E22CB
:1052BC00835A013B9BB28352835A9BB2002BEDD194
:1052CC00EFF3108C5D3A82F3108801680B68194C6F
:1052DC0023400B608CF31088EFF3108C82F3108852
:1052EC0001688B6893438B608CF310888C231F327E
:1052FC00C250002343670367C36E012B17D10023F1
:10530C00C366EFF31084013383F3108801680B68D4
:10531C00103A93430B6084F310880368D9690A42EE
:10532C0000D01A625C23C15AFFF7BFFDB6E7FDF748
:10533C003BFDB3E7DFFEFFFFF0B5CE46474680B539
:10534C0083B004006023C35A01930368DD691A68B3
:10535C0090469A6891468C228258222A08D09A69E3
:10536C0008210A439A6103B0C0BCB946B046F0BDEF
:10537C006823C65A40E09023E358002B79D15E2372
:10538C00E35A9BB2002B37D1EFF31080012282F34A
:10539C00108821680B684F4F3B400B6080F31088DE
:1053AC00EFF3108182F31088226893684A48034017
:1053BC00936081F310888C232022E25000236367D2
:1053CC002367E36E012B5BD10023E366EFF31080C0
:1053DC00013383F3108821680B68103A93430B60F8
:1053EC0080F310882368D9690A4200D01A625C23C2
:1053FC00E15A2000FFF759FD002E45D0AB0643D5EE
:10540C0023685B6A6A4612791340A26D1370A36D10
:10541C000133A3655E22A35A013B9BB2A3522368BE
:10542C00DD696A07ABD0EA0708D54246D20505D537
:10543C00012119629022A3580B43A350AB070AD544
:10544C004B46DB0707D5236802221A628E32A3581B
:10545C0004210B43A3506B078DD54B46DB078AD534
:10546C00236804221A628C32A35802210B43A350E6
:10547C0081E72000FFF70EFD90230022E2507EE72B
:10548C002000FDF791FCB7E75E23E35A9BB2002B9B
:10549C0000D168E76822A25A9A4200D863E7EFF37A
:1054AC001080012282F3108821688B680B4D2B40F1
:1054BC008B6080F310880A4B6367EFF3108182F3E3
:1054CC0010882268136820200343136081F310882E
:1054DC0049E7C046FFFEFFFFFEFFFFEFFFFFFFEFB8
:1054EC00D9510008F8B5DE4657464E464546E0B55C
:1054FC0004006023C55A0368DF691A6890469A68ED
:10550C0091468C228258222A09D09A6908210A4392
:10551C009A61F0BCBB46B246A946A046F8BD6823CA
:10552C00C65A43E09023E358002B7AD15E23E35A0A
:10553C009BB2002B3AD1EFF3108001339B4683F3DF
:10554C00108821680B689A464E4B52461A400A60E6
:10555C0080F31088EFF310818BF310882268936826
:10556C0049480340936081F310888C232022E25039
:10557C00002363672367E36E012B59D10023E36695
:10558C00EFF31080013383F3108821680B68103A15
:10559C0093430B6080F310882368D9690A4200D0CA
:1055AC001A625C23E15A2000FFF77FFC002E43D0E7
:1055BC00BB0641D523685B6A2B40A26D1380A36D9B
:1055CC000233A3655E22A35A013B9BB2A35223680C
:1055DC00DF697A07AAD0FA0708D54246D20505D565
:1055EC00012119629022A3580B43A350BB070AD583
:1055FC004B46DB0707D5236802221A628E32A3586A
:10560C0004210B43A3507B078CD54B46DB0789D574
:10561C00236804221A628C32A35802210B43A35034
:10562C0080E72000FFF736FC90230022E2507DE754
:10563C002000FDF7B9FBB9E75E23E35A9BB2002BC0
:10564C0000D166E76822A25A9A4200D861E7EFF3CC
:10565C001080012282F3108821688B680B4D2B403F
:10566C008B6080F310880A4B6367EFF3108182F331
:10567C0010882268136820200343136081F310887C
:10568C0047E7C046FFFEFFFFFEFFFFEFFFFFFFEF08
:10569C0091520008F8B5040001688368026913434D
:1056AC0042691343C26913430A689A480240134380
:1056BC000B602268536898490B40E1680B435360B8
:1056CC00A1692268954B9A4201D0236A19439368C9
:1056DC00934803400B4393602268D36A0F218B439A
:1056EC00616A0B43D36222688E4B9A4233D08E4B45
:1056FC009A4261D0894B9A423ED0102387498A4204
:10570C0064D0E06980221202904200D1A8E0042B00
:10571C0000D1F1E000D9D9E0002B00D1E5E0022B5B
:10572C0000D0D1E08148636A5B00814A995AFAF74C
:10573C00E3FC63685B08C0186168FAF7DDFC0200E3
:10574C00103A7C4B9A4200D9E1E023680004000C2B
:10575C00D8600020C0E0784B596D03230B40022B1E
:10576C0022D005D8002B21D0012B21D10333C5E742
:10577C00032B1FD10533C1E76F4B5B6DC0210901B2
:10578C000B40802109018B4218D007D8002B17D071
:10579C008021C9008B4215D10423AFE7C021090138
:1057AC008B4211D10823A9E70223A7E70023A5E721
:1057BC001023A3E71023A1E700239FE702239DE713
:1057CC0000239BE7102399E7102397E7042B43D082
:1057DC0034D8002B39D0022B2ED1544D636A5B0088
:1057EC00534A9F5A39002800FAF786FC6668730002
:1057FC009B19834200D982E03303834200D280E0BC
:10580C003A00002328000021FAF7ECFD050E0B02EC
:10581C002B430202700800218018594132000023EA
:10582C00FAF7E0FD454BC218454B9A4200D96AE0A5
:10583C002368D86000204FE001204DE0082B02D1F6
:10584C0080252D02CAE7012046E0FEF73FFF050048
:10585C00002DC3D100203FE0FEF710FE0500F7E756
:10586C00042B2ED023D8002B25D0022B1DD12F4852
:10587C00636A5B002E4A995AFAF73EFC4000636853
:10588C005B08C0186168FAF737FC0200103A294B24
:10589C009A423AD882B20F239A434008083B1840E8
:1058AC0010432368D860002016E0012014E0082B78
:1058BC00DED0012010E0FEF709FF0028D8D100202F
:1058CC000AE0FEF7DBFDF8E7012005E0082B02D12A
:1058DC008020000227E7012001236A22A352023A0A
:1058EC00A35200236367A367F8BDFEF7EFFE002801
:1058FC0000D018E70020EFE7FEF7C0FDF7E7012026
:10590C00EAE70120E8E70120E6E70120E4E70120CF
:10591C00E2E7C046F369FFCFFFCFFFFF00800040F6
:10592C00FFF4FF1100380140004400400024F40053
:10593C0024C50008EFFF00000010024000FDFFFF2F
:10594C00FFFC0F00836ADB0706D5026853682C49FD
:10595C000B40C16A0B435360836A9B0706D50268F0
:10596C00536828490B40016B0B435360836A5B07F8
:10597C0006D50268536824490B40416B0B435360B6
:10598C00836A1B0706D50268536820490B40816B5C
:10599C000B435360836ADB0606D5026893681C4987
:1059AC000B40C16B0B439360836A9B0606D5026860
:1059BC00936818490B40016C0B439360836A5B0638
:1059CC000BD50268536814490B40416C0B43536070
:1059DC0080235B03426C9A420AD0836A1B0606D56D
:1059EC00026853680D490B40C16C0B435360704700
:1059FC00026853680A490B40816C0B435360ECE717
:105A0C00FFFFFDFFFFFFFEFFFFFFFBFFFF7FFFFF21
:105A1C00FFEFFFFFFFDFFFFFFFFFEFFFFFFFF7FFD2
:105A2C00FFFF9FFFF8B5CE46474680B506000D0038
:105A3C0017009946089B98463368DC692C40641B18
:105A4C0063425C41BC4257D143460133F4D0FDF76D
:105A5C00CFFC4B46C01A40452ED84346002B2BD0CA
:105A6C0033681A685207E7D5DA691205E4D5802243
:105A7C0012011A62EFF31080012282F31088316850
:105A8C000B68204C23400B6080F31088EFF31080E0
:105A9C0082F3108831688B6893438B6080F3108895
:105AAC0020238732B3500432B3500432B3506433E2
:105ABC000022F254032020E0EFF31080012282F345
:105ACC00108831680B680F4C23400B6080F31088F2
